{
  "address": "0x310fdf3f57604d0BA77e34B0244e8d1D2285b5E2",
  "abi": [
    {
      "inputs": [
        {
          "internalType": "address",
          "name": "_registry",
          "type": "address"
        }
      ],
      "stateMutability": "nonpayable",
      "type": "constructor"
    },
    {
      "anonymous": false,
      "inputs": [
        {
          "indexed": false,
          "internalType": "address",
          "name": "charity",
          "type": "address"
        }
      ],
      "name": "CancelledFunding",
      "type": "event"
    },
    {
      "anonymous": false,
      "inputs": [
        {
          "indexed": true,
          "internalType": "address",
          "name": "previousOwner",
          "type": "address"
        },
        {
          "indexed": true,
          "internalType": "address",
          "name": "newOwner",
          "type": "address"
        }
      ],
      "name": "OwnershipTransferred",
      "type": "event"
    },
    {
      "anonymous": false,
      "inputs": [
        {
          "indexed": false,
          "internalType": "address",
          "name": "charity",
          "type": "address"
        },
        {
          "indexed": false,
          "internalType": "bytes",
          "name": "proof",
          "type": "bytes"
        }
      ],
      "name": "Registered",
      "type": "event"
    },
    {
      "anonymous": false,
      "inputs": [
        {
          "indexed": false,
          "internalType": "address",
          "name": "charity",
          "type": "address"
        },
        {
          "indexed": false,
          "internalType": "uint256",
          "name": "amount",
          "type": "uint256"
        },
        {
          "indexed": false,
          "internalType": "uint256",
          "name": "epoch",
          "type": "uint256"
        }
      ],
      "name": "RequestedFunding",
      "type": "event"
    },
    {
      "anonymous": false,
      "inputs": [
        {
          "indexed": false,
          "internalType": "address",
          "name": "charity",
          "type": "address"
        }
      ],
      "name": "Verified",
      "type": "event"
    },
    {
      "inputs": [],
      "name": "cancelRequest",
      "outputs": [],
      "stateMutability": "nonpayable",
      "type": "function"
    },
    {
      "inputs": [
        {
          "internalType": "uint256",
          "name": "requestId",
          "type": "uint256"
        }
      ],
      "name": "getFundingRequest",
      "outputs": [
        {
          "components": [
            {
              "internalType": "address",
              "name": "charity",
              "type": "address"
            },
            {
              "internalType": "bool",
              "name": "funded",
              "type": "bool"
            },
            {
              "internalType": "uint256",
              "name": "amount",
              "type": "uint256"
            }
          ],
          "internalType": "struct IGovernanceCharity.Request",
          "name": "",
          "type": "tuple"
        }
      ],
      "stateMutability": "view",
      "type": "function"
    },
    {
      "inputs": [
        {
          "internalType": "uint256",
          "name": "requestId",
          "type": "uint256"
        }
      ],
      "name": "notFunded",
      "outputs": [
        {
          "internalType": "bool",
          "name": "",
          "type": "bool"
        }
      ],
      "stateMutability": "view",
      "type": "function"
    },
    {
      "inputs": [],
      "name": "owner",
      "outputs": [
        {
          "internalType": "address",
          "name": "",
          "type": "address"
        }
      ],
      "stateMutability": "view",
      "type": "function"
    },
    {
      "inputs": [
        {
          "internalType": "bytes",
          "name": "proof",
          "type": "bytes"
        }
      ],
      "name": "register",
      "outputs": [],
      "stateMutability": "nonpayable",
      "type": "function"
    },
    {
      "inputs": [],
      "name": "registry",
      "outputs": [
        {
          "internalType": "address",
          "name": "",
          "type": "address"
        }
      ],
      "stateMutability": "view",
      "type": "function"
    },
    {
      "inputs": [],
      "name": "renounceOwnership",
      "outputs": [],
      "stateMutability": "nonpayable",
      "type": "function"
    },
    {
      "inputs": [],
      "name": "requestCounter",
      "outputs": [
        {
          "internalType": "uint256",
          "name": "",
          "type": "uint256"
        }
      ],
      "stateMutability": "view",
      "type": "function"
    },
    {
      "inputs": [
        {
          "internalType": "uint256",
          "name": "amount",
          "type": "uint256"
        }
      ],
      "name": "requestFunding",
      "outputs": [
        {
          "internalType": "uint256",
          "name": "epoch",
          "type": "uint256"
        }
      ],
      "stateMutability": "nonpayable",
      "type": "function"
    },
    {
      "inputs": [
        {
          "internalType": "address",
          "name": "charity",
          "type": "address"
        }
      ],
      "name": "statusOf",
      "outputs": [
        {
          "internalType": "enum IGovernanceCharity.Status",
          "name": "",
          "type": "uint8"
        }
      ],
      "stateMutability": "view",
      "type": "function"
    },
    {
      "inputs": [
        {
          "internalType": "address",
          "name": "newOwner",
          "type": "address"
        }
      ],
      "name": "transferOwnership",
      "outputs": [],
      "stateMutability": "nonpayable",
      "type": "function"
    },
    {
      "inputs": [
        {
          "internalType": "address",
          "name": "charity",
          "type": "address"
        }
      ],
      "name": "verify",
      "outputs": [],
      "stateMutability": "nonpayable",
      "type": "function"
    }
  ],
  "transactionHash": "0xbf3c6196b36051a87787dc4f652c680a1ac19e748153568105e7127d65c140f2",
  "args": [
    "0xa24f5713e4af49cf9476fa23b7815820b76878ed"
  ],
  "numDeployments": 2,
  "solcInputHash": "dccfbe3792c7bc45204dc1914c8cd437",
  "bytecode": "0x60a06040523480156200001157600080fd5b506040516200174f3803806200174f8339818101604052810190620000379190620001c8565b620000576200004b6200009260201b60201c565b6200009a60201b60201c565b8073ffffffffffffffffffffffffffffffffffffffff1660808173ffffffffffffffffffffffffffffffffffffffff168152505050620001fa565b600033905090565b60008060009054906101000a900473ffffffffffffffffffffffffffffffffffffffff169050816000806101000a81548173ffffffffffffffffffffffffffffffffffffffff021916908373ffffffffffffffffffffffffffffffffffffffff1602179055508173ffffffffffffffffffffffffffffffffffffffff168173ffffffffffffffffffffffffffffffffffffffff167f8be0079c531659141344cd1fd0a4f28419497f9722a3daafe3b4186f6b6457e060405160405180910390a35050565b600080fd5b600073ffffffffffffffffffffffffffffffffffffffff82169050919050565b6000620001908262000163565b9050919050565b620001a28162000183565b8114620001ae57600080fd5b50565b600081519050620001c28162000197565b92915050565b600060208284031215620001e157620001e06200015e565b5b6000620001f184828501620001b1565b91505092915050565b60805161152b62000224600039600081816103dd0152818161069c01526108cd015261152b6000f3fe608060405234801561001057600080fd5b50600436106100b45760003560e01c8063851b16f511610071578063851b16f5146101795780638da5cb5b14610183578063973a814e146101a157806397a5d5b5146101bf578063a1aaf1b5146101ef578063f2fde38b1461021f576100b4565b80632fd4fe64146100b95780635cd9ef81146100e957806363a9c3d714610119578063715018a6146101355780637b1039991461013f57806382fbdc9c1461015d575b600080fd5b6100d360048036038101906100ce9190610db2565b61023b565b6040516100e09190610e8c565b60405180910390f35b61010360048036038101906100fe9190610db2565b6102e3565b6040516101109190610eb6565b60405180910390f35b610133600480360381019061012e9190610efd565b61052a565b005b61013d610686565b005b61014761069a565b6040516101549190610f39565b60405180910390f35b61017760048036038101906101729190610fb9565b6106be565b005b610181610818565b005b61018b6109fe565b6040516101989190610f39565b60405180910390f35b6101a9610a27565b6040516101b69190610eb6565b60405180910390f35b6101d960048036038101906101d49190610efd565b610a2d565b6040516101e6919061107d565b60405180910390f35b61020960048036038101906102049190610db2565b610a83565b60405161021691906110a7565b60405180910390f35b61023960048036038101906102349190610efd565b610b6c565b005b610243610d39565b600360008381526020019081526020016000206040518060600160405290816000820160009054906101000a900473ffffffffffffffffffffffffffffffffffffffff1673ffffffffffffffffffffffffffffffffffffffff1673ffffffffffffffffffffffffffffffffffffffff1681526020016000820160149054906101000a900460ff161515151581526020016001820154815250509050919050565b6000336002808111156102f9576102f8611006565b5b600260008373ffffffffffffffffffffffffffffffffffffffff1673ffffffffffffffffffffffffffffffffffffffff16815260200190815260200160002060009054906101000a900460ff16600281111561035857610357611006565b5b14610398576040517f08c379a000000000000000000000000000000000000000000000000000000000815260040161038f9061111f565b60405180910390fd5b600083116103db576040517f08c379a00000000000000000000000000000000000000000000000000000000081526004016103d29061118b565b60405180910390fd5b7f000000000000000000000000000000000000000000000000000000000000000073ffffffffffffffffffffffffffffffffffffffff16637bb78e586040518163ffffffff1660e01b8152600401602060405180830381865afa158015610446573d6000803e3d6000fd5b505050506040513d601f19601f8201168201806040525081019061046a91906111c0565b73ffffffffffffffffffffffffffffffffffffffff1663f5f2d28633856040518363ffffffff1660e01b81526004016104a49291906111ed565b6020604051808303816000875af11580156104c3573d6000803e3d6000fd5b505050506040513d601f19601f820116820180604052508101906104e7919061122b565b91507f8e11e9f948b1e298f3c8e681f9f4b7138e8f9c2cf683f0dd9eaad17993594f7d33848460405161051c93929190611258565b60405180910390a150919050565b610532610bef565b6001600281111561054657610545611006565b5b600260008373ffffffffffffffffffffffffffffffffffffffff1673ffffffffffffffffffffffffffffffffffffffff16815260200190815260200160002060009054906101000a900460ff1660028111156105a5576105a4611006565b5b146105e5576040517f08c379a00000000000000000000000000000000000000000000000000000000081526004016105dc906112db565b60405180910390fd5b60028060008373ffffffffffffffffffffffffffffffffffffffff1673ffffffffffffffffffffffffffffffffffffffff16815260200190815260200160002060006101000a81548160ff0219169083600281111561064757610646611006565b5b02179055507f6a6455914f452787eb3985452aceedc1000fb545e394eb3b370e3d08958e0a5b8160405161067b9190610f39565b60405180910390a150565b61068e610bef565b6106986000610c6d565b565b7f000000000000000000000000000000000000000000000000000000000000000081565b600060028111156106d2576106d1611006565b5b600260003373ffffffffffffffffffffffffffffffffffffffff1673ffffffffffffffffffffffffffffffffffffffff16815260200190815260200160002060009054906101000a900460ff16600281111561073157610730611006565b5b14610771576040517f08c379a000000000000000000000000000000000000000000000000000000000815260040161076890611347565b60405180910390fd5b6001600260003373ffffffffffffffffffffffffffffffffffffffff1673ffffffffffffffffffffffffffffffffffffffff16815260200190815260200160002060006101000a81548160ff021916908360028111156107d4576107d3611006565b5b02179055507fb5ca2dfb0bd25603299b76fefa9fbe3abdc9f951bdfb7ffd208f93ab7f8e203c33838360405161080c939291906113c5565b60405180910390a15050565b3360028081111561082c5761082b611006565b5b600260008373ffffffffffffffffffffffffffffffffffffffff1673ffffffffffffffffffffffffffffffffffffffff16815260200190815260200160002060009054906101000a900460ff16600281111561088b5761088a611006565b5b146108cb576040517f08c379a00000000000000000000000000000000000000000000000000000000081526004016108c29061111f565b60405180910390fd5b7f000000000000000000000000000000000000000000000000000000000000000073ffffffffffffffffffffffffffffffffffffffff16637bb78e586040518163ffffffff1660e01b8152600401602060405180830381865afa158015610936573d6000803e3d6000fd5b505050506040513d601f19601f8201168201806040525081019061095a91906111c0565b73ffffffffffffffffffffffffffffffffffffffff1663abefe591336040518263ffffffff1660e01b81526004016109929190610f39565b600060405180830381600087803b1580156109ac57600080fd5b505af11580156109c0573d6000803e3d6000fd5b505050507f3293d3a4541797063bf7ff3f65f1c0f336764b47da54e0408a3410dcdd8209bd336040516109f39190610f39565b60405180910390a150565b60008060009054906101000a900473ffffffffffffffffffffffffffffffffffffffff16905090565b60015481565b6000600260008373ffffffffffffffffffffffffffffffffffffffff1673ffffffffffffffffffffffffffffffffffffffff16815260200190815260200160002060009054906101000a900460ff169050919050565b600080600360008481526020019081526020016000206040518060600160405290816000820160009054906101000a900473ffffffffffffffffffffffffffffffffffffffff1673ffffffffffffffffffffffffffffffffffffffff1673ffffffffffffffffffffffffffffffffffffffff1681526020016000820160149054906101000a900460ff161515151581526020016001820154815250509050600073ffffffffffffffffffffffffffffffffffffffff16816000015173ffffffffffffffffffffffffffffffffffffffff1614158015610b6457508060200151155b915050919050565b610b74610bef565b600073ffffffffffffffffffffffffffffffffffffffff168173ffffffffffffffffffffffffffffffffffffffff1603610be3576040517f08c379a0000000000000000000000000000000000000000000000000000000008152600401610bda90611469565b60405180910390fd5b610bec81610c6d565b50565b610bf7610d31565b73ffffffffffffffffffffffffffffffffffffffff16610c156109fe565b73ffffffffffffffffffffffffffffffffffffffff1614610c6b576040517f08c379a0000000000000000000000000000000000000000000000000000000008152600401610c62906114d5565b60405180910390fd5b565b60008060009054906101000a900473ffffffffffffffffffffffffffffffffffffffff169050816000806101000a81548173ffffffffffffffffffffffffffffffffffffffff021916908373ffffffffffffffffffffffffffffffffffffffff1602179055508173ffffffffffffffffffffffffffffffffffffffff168173ffffffffffffffffffffffffffffffffffffffff167f8be0079c531659141344cd1fd0a4f28419497f9722a3daafe3b4186f6b6457e060405160405180910390a35050565b600033905090565b6040518060600160405280600073ffffffffffffffffffffffffffffffffffffffff168152602001600015158152602001600081525090565b600080fd5b600080fd5b6000819050919050565b610d8f81610d7c565b8114610d9a57600080fd5b50565b600081359050610dac81610d86565b92915050565b600060208284031215610dc857610dc7610d72565b5b6000610dd684828501610d9d565b91505092915050565b600073ffffffffffffffffffffffffffffffffffffffff82169050919050565b6000610e0a82610ddf565b9050919050565b610e1a81610dff565b82525050565b60008115159050919050565b610e3581610e20565b82525050565b610e4481610d7c565b82525050565b606082016000820151610e606000850182610e11565b506020820151610e736020850182610e2c565b506040820151610e866040850182610e3b565b50505050565b6000606082019050610ea16000830184610e4a565b92915050565b610eb081610d7c565b82525050565b6000602082019050610ecb6000830184610ea7565b92915050565b610eda81610dff565b8114610ee557600080fd5b50565b600081359050610ef781610ed1565b92915050565b600060208284031215610f1357610f12610d72565b5b6000610f2184828501610ee8565b91505092915050565b610f3381610dff565b82525050565b6000602082019050610f4e6000830184610f2a565b92915050565b600080fd5b600080fd5b600080fd5b60008083601f840112610f7957610f78610f54565b5b8235905067ffffffffffffffff811115610f9657610f95610f59565b5b602083019150836001820283011115610fb257610fb1610f5e565b5b9250929050565b60008060208385031215610fd057610fcf610d72565b5b600083013567ffffffffffffffff811115610fee57610fed610d77565b5b610ffa85828601610f63565b92509250509250929050565b7f4e487b7100000000000000000000000000000000000000000000000000000000600052602160045260246000fd5b6003811061104657611045611006565b5b50565b600081905061105782611035565b919050565b600061106782611049565b9050919050565b6110778161105c565b82525050565b6000602082019050611092600083018461106e565b92915050565b6110a181610e20565b82525050565b60006020820190506110bc6000830184611098565b92915050565b600082825260208201905092915050565b7f4e6f742076657269666965640000000000000000000000000000000000000000600082015250565b6000611109600c836110c2565b9150611114826110d3565b602082019050919050565b60006020820190508181036000830152611138816110fc565b9050919050565b7f4d7573742072657175657374206e6f6e2d7a65726f20616d6f756e7473000000600082015250565b6000611175601d836110c2565b91506111808261113f565b602082019050919050565b600060208201905081810360008301526111a481611168565b9050919050565b6000815190506111ba81610ed1565b92915050565b6000602082840312156111d6576111d5610d72565b5b60006111e4848285016111ab565b91505092915050565b60006040820190506112026000830185610f2a565b61120f6020830184610ea7565b9392505050565b60008151905061122581610d86565b92915050565b60006020828403121561124157611240610d72565b5b600061124f84828501611216565b91505092915050565b600060608201905061126d6000830186610f2a565b61127a6020830185610ea7565b6112876040830184610ea7565b949350505050565b7f4e6f742072656769737465726564000000000000000000000000000000000000600082015250565b60006112c5600e836110c2565b91506112d08261128f565b602082019050919050565b600060208201905081810360008301526112f4816112b8565b9050919050565b7f416c726561647920726567697374657265640000000000000000000000000000600082015250565b60006113316012836110c2565b915061133c826112fb565b602082019050919050565b6000602082019050818103600083015261136081611324565b9050919050565b600082825260208201905092915050565b82818337600083830152505050565b6000601f19601f8301169050919050565b60006113a48385611367565b93506113b1838584611378565b6113ba83611387565b840190509392505050565b60006040820190506113da6000830186610f2a565b81810360208301526113ed818486611398565b9050949350505050565b7f4f776e61626c653a206e6577206f776e657220697320746865207a65726f206160008201527f6464726573730000000000000000000000000000000000000000000000000000602082015250565b60006114536026836110c2565b915061145e826113f7565b604082019050919050565b6000602082019050818103600083015261148281611446565b9050919050565b7f4f776e61626c653a2063616c6c6572206973206e6f7420746865206f776e6572600082015250565b60006114bf6020836110c2565b91506114ca82611489565b602082019050919050565b600060208201905081810360008301526114ee816114b2565b905091905056fea26469706673582212207cb380bd5f0799fd04b71890e25695a0be9a86fa7c460ecf370af5fa561c21f964736f6c63430008110033",
  "devdoc": {
    "kind": "dev",
    "methods": {
      "owner()": {
        "details": "Returns the address of the current owner."
      },
      "renounceOwnership()": {
        "details": "Leaves the contract without owner. It will not be possible to call `onlyOwner` functions anymore. Can only be called by the current owner. NOTE: Renouncing ownership will leave the contract without an owner, thereby removing any functionality that is only available to the owner."
      },
      "transferOwnership(address)": {
        "details": "Transfers ownership of the contract to a new account (`newOwner`). Can only be called by the current owner."
      }
    },
    "version": 1
  },
  "userdoc": {
    "events": {
      "CancelledFunding(address)": {
        "notice": "Emitted when a charity cancels their funding request"
      },
      "Registered(address,bytes)": {
        "notice": "Emitted when a charity is registered to be verified."
      },
      "RequestedFunding(address,uint256,uint256)": {
        "notice": "Emitted when a charity requests funding"
      },
      "Verified(address)": {
        "notice": "Emitted when a charity is verified."
      }
    },
    "kind": "user",
    "methods": {},
    "version": 1
  },
  "storageLayout": {
    "storage": [
      {
        "astId": 53,
        "contract": "contracts/GovernanceCharity.sol:GovernanceCharity",
        "label": "_owner",
        "offset": 0,
        "slot": "0",
        "type": "t_address"
      },
      {
        "astId": 5792,
        "contract": "contracts/GovernanceCharity.sol:GovernanceCharity",
        "label": "requestCounter",
        "offset": 0,
        "slot": "1",
        "type": "t_uint256"
      },
      {
        "astId": 5800,
        "contract": "contracts/GovernanceCharity.sol:GovernanceCharity",
        "label": "_status",
        "offset": 0,
        "slot": "2",
        "type": "t_mapping(t_address,t_enum(Status)7627)"
      },
      {
        "astId": 5805,
        "contract": "contracts/GovernanceCharity.sol:GovernanceCharity",
        "label": "_requests",
        "offset": 0,
        "slot": "3",
        "type": "t_mapping(t_uint256,t_struct(Request)7634_storage)"
      }
    ],
    "types": {
      "t_address": {
        "encoding": "inplace",
        "label": "address",
        "numberOfBytes": "20"
      },
      "t_bool": {
        "encoding": "inplace",
        "label": "bool",
        "numberOfBytes": "1"
      },
      "t_enum(Status)7627": {
        "encoding": "inplace",
        "label": "enum IGovernanceCharity.Status",
        "numberOfBytes": "1"
      },
      "t_mapping(t_address,t_enum(Status)7627)": {
        "encoding": "mapping",
        "key": "t_address",
        "label": "mapping(address => enum IGovernanceCharity.Status)",
        "numberOfBytes": "32",
        "value": "t_enum(Status)7627"
      },
      "t_mapping(t_uint256,t_struct(Request)7634_storage)": {
        "encoding": "mapping",
        "key": "t_uint256",
        "label": "mapping(uint256 => struct IGovernanceCharity.Request)",
        "numberOfBytes": "32",
        "value": "t_struct(Request)7634_storage"
      },
      "t_struct(Request)7634_storage": {
        "encoding": "inplace",
        "label": "struct IGovernanceCharity.Request",
        "members": [
          {
            "astId": 7629,
            "contract": "contracts/GovernanceCharity.sol:GovernanceCharity",
            "label": "charity",
            "offset": 0,
            "slot": "0",
            "type": "t_address"
          },
          {
            "astId": 7631,
            "contract": "contracts/GovernanceCharity.sol:GovernanceCharity",
            "label": "funded",
            "offset": 20,
            "slot": "0",
            "type": "t_bool"
          },
          {
            "astId": 7633,
            "contract": "contracts/GovernanceCharity.sol:GovernanceCharity",
            "label": "amount",
            "offset": 0,
            "slot": "1",
            "type": "t_uint256"
          }
        ],
        "numberOfBytes": "64"
      },
      "t_uint256": {
        "encoding": "inplace",
        "label": "uint256",
        "numberOfBytes": "32"
      }
    }
  }
}