{
  "address": "0x6B1302475dcD79fB3509565FcFc60280055277FC",
  "abi": [
    {
      "inputs": [
        {
          "internalType": "address",
          "name": "_registry",
          "type": "address"
        }
      ],
      "stateMutability": "nonpayable",
      "type": "constructor"
    },
    {
      "anonymous": false,
      "inputs": [
        {
          "indexed": true,
          "internalType": "address",
          "name": "previousOwner",
          "type": "address"
        },
        {
          "indexed": true,
          "internalType": "address",
          "name": "newOwner",
          "type": "address"
        }
      ],
      "name": "OwnershipTransferred",
      "type": "event"
    },
    {
      "anonymous": false,
      "inputs": [
        {
          "indexed": false,
          "internalType": "address",
          "name": "charity",
          "type": "address"
        },
        {
          "indexed": false,
          "internalType": "bytes",
          "name": "proof",
          "type": "bytes"
        }
      ],
      "name": "Registered",
      "type": "event"
    },
    {
      "anonymous": false,
      "inputs": [
        {
          "indexed": false,
          "internalType": "address",
          "name": "charity",
          "type": "address"
        }
      ],
      "name": "Verified",
      "type": "event"
    },
    {
      "inputs": [],
      "name": "cancelRequest",
      "outputs": [],
      "stateMutability": "nonpayable",
      "type": "function"
    },
    {
      "inputs": [
        {
          "internalType": "uint256",
          "name": "requestId",
          "type": "uint256"
        }
      ],
      "name": "getFundingRequest",
      "outputs": [
        {
          "components": [
            {
              "internalType": "address",
              "name": "charity",
              "type": "address"
            },
            {
              "internalType": "bool",
              "name": "funded",
              "type": "bool"
            },
            {
              "internalType": "uint256",
              "name": "amount",
              "type": "uint256"
            }
          ],
          "internalType": "struct IGovernanceCharity.Request",
          "name": "",
          "type": "tuple"
        }
      ],
      "stateMutability": "view",
      "type": "function"
    },
    {
      "inputs": [
        {
          "internalType": "uint256",
          "name": "requestId",
          "type": "uint256"
        }
      ],
      "name": "notFunded",
      "outputs": [
        {
          "internalType": "bool",
          "name": "",
          "type": "bool"
        }
      ],
      "stateMutability": "view",
      "type": "function"
    },
    {
      "inputs": [],
      "name": "owner",
      "outputs": [
        {
          "internalType": "address",
          "name": "",
          "type": "address"
        }
      ],
      "stateMutability": "view",
      "type": "function"
    },
    {
      "inputs": [
        {
          "internalType": "bytes",
          "name": "proof",
          "type": "bytes"
        }
      ],
      "name": "register",
      "outputs": [],
      "stateMutability": "nonpayable",
      "type": "function"
    },
    {
      "inputs": [],
      "name": "registry",
      "outputs": [
        {
          "internalType": "address",
          "name": "",
          "type": "address"
        }
      ],
      "stateMutability": "view",
      "type": "function"
    },
    {
      "inputs": [],
      "name": "renounceOwnership",
      "outputs": [],
      "stateMutability": "nonpayable",
      "type": "function"
    },
    {
      "inputs": [],
      "name": "requestCounter",
      "outputs": [
        {
          "internalType": "uint256",
          "name": "",
          "type": "uint256"
        }
      ],
      "stateMutability": "view",
      "type": "function"
    },
    {
      "inputs": [
        {
          "internalType": "uint256",
          "name": "amount",
          "type": "uint256"
        }
      ],
      "name": "requestFunding",
      "outputs": [
        {
          "internalType": "uint256",
          "name": "epoch",
          "type": "uint256"
        }
      ],
      "stateMutability": "nonpayable",
      "type": "function"
    },
    {
      "inputs": [
        {
          "internalType": "address",
          "name": "charity",
          "type": "address"
        }
      ],
      "name": "statusOf",
      "outputs": [
        {
          "internalType": "enum IGovernanceCharity.Status",
          "name": "",
          "type": "uint8"
        }
      ],
      "stateMutability": "view",
      "type": "function"
    },
    {
      "inputs": [
        {
          "internalType": "address",
          "name": "newOwner",
          "type": "address"
        }
      ],
      "name": "transferOwnership",
      "outputs": [],
      "stateMutability": "nonpayable",
      "type": "function"
    },
    {
      "inputs": [
        {
          "internalType": "address",
          "name": "charity",
          "type": "address"
        }
      ],
      "name": "verify",
      "outputs": [],
      "stateMutability": "nonpayable",
      "type": "function"
    }
  ],
  "transactionHash": "0xecc1ad6ca3dbda486817f3383813baa02872e4bf294a6ed331a86bee24fcd60c",
  "args": [
    "0xa24f5713e4af49cf9476fa23b7815820b76878ed"
  ],
  "numDeployments": 1,
  "solcInputHash": "d785d38e0d82ec1ae228751911380dae",
  "bytecode": "0x60a06040523480156200001157600080fd5b50604051620016a6380380620016a68339818101604052810190620000379190620001c8565b620000576200004b6200009260201b60201c565b6200009a60201b60201c565b8073ffffffffffffffffffffffffffffffffffffffff1660808173ffffffffffffffffffffffffffffffffffffffff168152505050620001fa565b600033905090565b60008060009054906101000a900473ffffffffffffffffffffffffffffffffffffffff169050816000806101000a81548173ffffffffffffffffffffffffffffffffffffffff021916908373ffffffffffffffffffffffffffffffffffffffff1602179055508173ffffffffffffffffffffffffffffffffffffffff168173ffffffffffffffffffffffffffffffffffffffff167f8be0079c531659141344cd1fd0a4f28419497f9722a3daafe3b4186f6b6457e060405160405180910390a35050565b600080fd5b600073ffffffffffffffffffffffffffffffffffffffff82169050919050565b6000620001908262000163565b9050919050565b620001a28162000183565b8114620001ae57600080fd5b50565b600081519050620001c28162000197565b92915050565b600060208284031215620001e157620001e06200015e565b5b6000620001f184828501620001b1565b91505092915050565b60805161148262000224600039600081816103dd01528181610661015261089201526114826000f3fe608060405234801561001057600080fd5b50600436106100b45760003560e01c8063851b16f511610071578063851b16f5146101795780638da5cb5b14610183578063973a814e146101a157806397a5d5b5146101bf578063a1aaf1b5146101ef578063f2fde38b1461021f576100b4565b80632fd4fe64146100b95780635cd9ef81146100e957806363a9c3d714610119578063715018a6146101355780637b1039991461013f57806382fbdc9c1461015d575b600080fd5b6100d360048036038101906100ce9190610d40565b61023b565b6040516100e09190610e1a565b60405180910390f35b61010360048036038101906100fe9190610d40565b6102e3565b6040516101109190610e44565b60405180910390f35b610133600480360381019061012e9190610e8b565b6104ef565b005b61013d61064b565b005b61014761065f565b6040516101549190610ec7565b60405180910390f35b61017760048036038101906101729190610f47565b610683565b005b6101816107dd565b005b61018b61098c565b6040516101989190610ec7565b60405180910390f35b6101a96109b5565b6040516101b69190610e44565b60405180910390f35b6101d960048036038101906101d49190610e8b565b6109bb565b6040516101e6919061100b565b60405180910390f35b61020960048036038101906102049190610d40565b610a11565b6040516102169190611035565b60405180910390f35b61023960048036038101906102349190610e8b565b610afa565b005b610243610cc7565b600360008381526020019081526020016000206040518060600160405290816000820160009054906101000a900473ffffffffffffffffffffffffffffffffffffffff1673ffffffffffffffffffffffffffffffffffffffff1673ffffffffffffffffffffffffffffffffffffffff1681526020016000820160149054906101000a900460ff161515151581526020016001820154815250509050919050565b6000336002808111156102f9576102f8610f94565b5b600260008373ffffffffffffffffffffffffffffffffffffffff1673ffffffffffffffffffffffffffffffffffffffff16815260200190815260200160002060009054906101000a900460ff16600281111561035857610357610f94565b5b14610398576040517f08c379a000000000000000000000000000000000000000000000000000000000815260040161038f906110ad565b60405180910390fd5b600083116103db576040517f08c379a00000000000000000000000000000000000000000000000000000000081526004016103d290611119565b60405180910390fd5b7f000000000000000000000000000000000000000000000000000000000000000073ffffffffffffffffffffffffffffffffffffffff16637bb78e586040518163ffffffff1660e01b8152600401602060405180830381865afa158015610446573d6000803e3d6000fd5b505050506040513d601f19601f8201168201806040525081019061046a919061114e565b73ffffffffffffffffffffffffffffffffffffffff1663f5f2d28633856040518363ffffffff1660e01b81526004016104a492919061117b565b6020604051808303816000875af11580156104c3573d6000803e3d6000fd5b505050506040513d601f19601f820116820180604052508101906104e791906111b9565b915050919050565b6104f7610b7d565b6001600281111561050b5761050a610f94565b5b600260008373ffffffffffffffffffffffffffffffffffffffff1673ffffffffffffffffffffffffffffffffffffffff16815260200190815260200160002060009054906101000a900460ff16600281111561056a57610569610f94565b5b146105aa576040517f08c379a00000000000000000000000000000000000000000000000000000000081526004016105a190611232565b60405180910390fd5b60028060008373ffffffffffffffffffffffffffffffffffffffff1673ffffffffffffffffffffffffffffffffffffffff16815260200190815260200160002060006101000a81548160ff0219169083600281111561060c5761060b610f94565b5b02179055507f6a6455914f452787eb3985452aceedc1000fb545e394eb3b370e3d08958e0a5b816040516106409190610ec7565b60405180910390a150565b610653610b7d565b61065d6000610bfb565b565b7f000000000000000000000000000000000000000000000000000000000000000081565b6000600281111561069757610696610f94565b5b600260003373ffffffffffffffffffffffffffffffffffffffff1673ffffffffffffffffffffffffffffffffffffffff16815260200190815260200160002060009054906101000a900460ff1660028111156106f6576106f5610f94565b5b14610736576040517f08c379a000000000000000000000000000000000000000000000000000000000815260040161072d9061129e565b60405180910390fd5b6001600260003373ffffffffffffffffffffffffffffffffffffffff1673ffffffffffffffffffffffffffffffffffffffff16815260200190815260200160002060006101000a81548160ff0219169083600281111561079957610798610f94565b5b02179055507fb5ca2dfb0bd25603299b76fefa9fbe3abdc9f951bdfb7ffd208f93ab7f8e203c3383836040516107d19392919061131c565b60405180910390a15050565b336002808111156107f1576107f0610f94565b5b600260008373ffffffffffffffffffffffffffffffffffffffff1673ffffffffffffffffffffffffffffffffffffffff16815260200190815260200160002060009054906101000a900460ff1660028111156108505761084f610f94565b5b14610890576040517f08c379a0000000000000000000000000000000000000000000000000000000008152600401610887906110ad565b60405180910390fd5b7f000000000000000000000000000000000000000000000000000000000000000073ffffffffffffffffffffffffffffffffffffffff16637bb78e586040518163ffffffff1660e01b8152600401602060405180830381865afa1580156108fb573d6000803e3d6000fd5b505050506040513d601f19601f8201168201806040525081019061091f919061114e565b73ffffffffffffffffffffffffffffffffffffffff1663abefe591336040518263ffffffff1660e01b81526004016109579190610ec7565b600060405180830381600087803b15801561097157600080fd5b505af1158015610985573d6000803e3d6000fd5b5050505050565b60008060009054906101000a900473ffffffffffffffffffffffffffffffffffffffff16905090565b60015481565b6000600260008373ffffffffffffffffffffffffffffffffffffffff1673ffffffffffffffffffffffffffffffffffffffff16815260200190815260200160002060009054906101000a900460ff169050919050565b600080600360008481526020019081526020016000206040518060600160405290816000820160009054906101000a900473ffffffffffffffffffffffffffffffffffffffff1673ffffffffffffffffffffffffffffffffffffffff1673ffffffffffffffffffffffffffffffffffffffff1681526020016000820160149054906101000a900460ff161515151581526020016001820154815250509050600073ffffffffffffffffffffffffffffffffffffffff16816000015173ffffffffffffffffffffffffffffffffffffffff1614158015610af257508060200151155b915050919050565b610b02610b7d565b600073ffffffffffffffffffffffffffffffffffffffff168173ffffffffffffffffffffffffffffffffffffffff1603610b71576040517f08c379a0000000000000000000000000000000000000000000000000000000008152600401610b68906113c0565b60405180910390fd5b610b7a81610bfb565b50565b610b85610cbf565b73ffffffffffffffffffffffffffffffffffffffff16610ba361098c565b73ffffffffffffffffffffffffffffffffffffffff1614610bf9576040517f08c379a0000000000000000000000000000000000000000000000000000000008152600401610bf09061142c565b60405180910390fd5b565b60008060009054906101000a900473ffffffffffffffffffffffffffffffffffffffff169050816000806101000a81548173ffffffffffffffffffffffffffffffffffffffff021916908373ffffffffffffffffffffffffffffffffffffffff1602179055508173ffffffffffffffffffffffffffffffffffffffff168173ffffffffffffffffffffffffffffffffffffffff167f8be0079c531659141344cd1fd0a4f28419497f9722a3daafe3b4186f6b6457e060405160405180910390a35050565b600033905090565b6040518060600160405280600073ffffffffffffffffffffffffffffffffffffffff168152602001600015158152602001600081525090565b600080fd5b600080fd5b6000819050919050565b610d1d81610d0a565b8114610d2857600080fd5b50565b600081359050610d3a81610d14565b92915050565b600060208284031215610d5657610d55610d00565b5b6000610d6484828501610d2b565b91505092915050565b600073ffffffffffffffffffffffffffffffffffffffff82169050919050565b6000610d9882610d6d565b9050919050565b610da881610d8d565b82525050565b60008115159050919050565b610dc381610dae565b82525050565b610dd281610d0a565b82525050565b606082016000820151610dee6000850182610d9f565b506020820151610e016020850182610dba565b506040820151610e146040850182610dc9565b50505050565b6000606082019050610e2f6000830184610dd8565b92915050565b610e3e81610d0a565b82525050565b6000602082019050610e596000830184610e35565b92915050565b610e6881610d8d565b8114610e7357600080fd5b50565b600081359050610e8581610e5f565b92915050565b600060208284031215610ea157610ea0610d00565b5b6000610eaf84828501610e76565b91505092915050565b610ec181610d8d565b82525050565b6000602082019050610edc6000830184610eb8565b92915050565b600080fd5b600080fd5b600080fd5b60008083601f840112610f0757610f06610ee2565b5b8235905067ffffffffffffffff811115610f2457610f23610ee7565b5b602083019150836001820283011115610f4057610f3f610eec565b5b9250929050565b60008060208385031215610f5e57610f5d610d00565b5b600083013567ffffffffffffffff811115610f7c57610f7b610d05565b5b610f8885828601610ef1565b92509250509250929050565b7f4e487b7100000000000000000000000000000000000000000000000000000000600052602160045260246000fd5b60038110610fd457610fd3610f94565b5b50565b6000819050610fe582610fc3565b919050565b6000610ff582610fd7565b9050919050565b61100581610fea565b82525050565b60006020820190506110206000830184610ffc565b92915050565b61102f81610dae565b82525050565b600060208201905061104a6000830184611026565b92915050565b600082825260208201905092915050565b7f4e6f742076657269666965640000000000000000000000000000000000000000600082015250565b6000611097600c83611050565b91506110a282611061565b602082019050919050565b600060208201905081810360008301526110c68161108a565b9050919050565b7f4d7573742072657175657374206e6f6e2d7a65726f20616d6f756e7473000000600082015250565b6000611103601d83611050565b915061110e826110cd565b602082019050919050565b60006020820190508181036000830152611132816110f6565b9050919050565b60008151905061114881610e5f565b92915050565b60006020828403121561116457611163610d00565b5b600061117284828501611139565b91505092915050565b60006040820190506111906000830185610eb8565b61119d6020830184610e35565b9392505050565b6000815190506111b381610d14565b92915050565b6000602082840312156111cf576111ce610d00565b5b60006111dd848285016111a4565b91505092915050565b7f4e6f742072656769737465726564000000000000000000000000000000000000600082015250565b600061121c600e83611050565b9150611227826111e6565b602082019050919050565b6000602082019050818103600083015261124b8161120f565b9050919050565b7f416c726561647920726567697374657265640000000000000000000000000000600082015250565b6000611288601283611050565b915061129382611252565b602082019050919050565b600060208201905081810360008301526112b78161127b565b9050919050565b600082825260208201905092915050565b82818337600083830152505050565b6000601f19601f8301169050919050565b60006112fb83856112be565b93506113088385846112cf565b611311836112de565b840190509392505050565b60006040820190506113316000830186610eb8565b81810360208301526113448184866112ef565b9050949350505050565b7f4f776e61626c653a206e6577206f776e657220697320746865207a65726f206160008201527f6464726573730000000000000000000000000000000000000000000000000000602082015250565b60006113aa602683611050565b91506113b58261134e565b604082019050919050565b600060208201905081810360008301526113d98161139d565b9050919050565b7f4f776e61626c653a2063616c6c6572206973206e6f7420746865206f776e6572600082015250565b6000611416602083611050565b9150611421826113e0565b602082019050919050565b6000602082019050818103600083015261144581611409565b905091905056fea2646970667358221220c36226cc78ac416d288be3e0238c64ecfff40f247b4b4c84bca00aa6e9916db164736f6c63430008110033",
  "devdoc": {
    "kind": "dev",
    "methods": {
      "owner()": {
        "details": "Returns the address of the current owner."
      },
      "renounceOwnership()": {
        "details": "Leaves the contract without owner. It will not be possible to call `onlyOwner` functions anymore. Can only be called by the current owner. NOTE: Renouncing ownership will leave the contract without an owner, thereby removing any functionality that is only available to the owner."
      },
      "transferOwnership(address)": {
        "details": "Transfers ownership of the contract to a new account (`newOwner`). Can only be called by the current owner."
      }
    },
    "version": 1
  },
  "userdoc": {
    "events": {
      "Registered(address,bytes)": {
        "notice": "Emitted when a charity is registered to be verified."
      },
      "Verified(address)": {
        "notice": "Emitted when a charity is verified."
      }
    },
    "kind": "user",
    "methods": {},
    "version": 1
  },
  "storageLayout": {
    "storage": [
      {
        "astId": 53,
        "contract": "contracts/GovernanceCharity.sol:GovernanceCharity",
        "label": "_owner",
        "offset": 0,
        "slot": "0",
        "type": "t_address"
      },
      {
        "astId": 5792,
        "contract": "contracts/GovernanceCharity.sol:GovernanceCharity",
        "label": "requestCounter",
        "offset": 0,
        "slot": "1",
        "type": "t_uint256"
      },
      {
        "astId": 5800,
        "contract": "contracts/GovernanceCharity.sol:GovernanceCharity",
        "label": "_status",
        "offset": 0,
        "slot": "2",
        "type": "t_mapping(t_address,t_enum(Status)7540)"
      },
      {
        "astId": 5805,
        "contract": "contracts/GovernanceCharity.sol:GovernanceCharity",
        "label": "_requests",
        "offset": 0,
        "slot": "3",
        "type": "t_mapping(t_uint256,t_struct(Request)7547_storage)"
      }
    ],
    "types": {
      "t_address": {
        "encoding": "inplace",
        "label": "address",
        "numberOfBytes": "20"
      },
      "t_bool": {
        "encoding": "inplace",
        "label": "bool",
        "numberOfBytes": "1"
      },
      "t_enum(Status)7540": {
        "encoding": "inplace",
        "label": "enum IGovernanceCharity.Status",
        "numberOfBytes": "1"
      },
      "t_mapping(t_address,t_enum(Status)7540)": {
        "encoding": "mapping",
        "key": "t_address",
        "label": "mapping(address => enum IGovernanceCharity.Status)",
        "numberOfBytes": "32",
        "value": "t_enum(Status)7540"
      },
      "t_mapping(t_uint256,t_struct(Request)7547_storage)": {
        "encoding": "mapping",
        "key": "t_uint256",
        "label": "mapping(uint256 => struct IGovernanceCharity.Request)",
        "numberOfBytes": "32",
        "value": "t_struct(Request)7547_storage"
      },
      "t_struct(Request)7547_storage": {
        "encoding": "inplace",
        "label": "struct IGovernanceCharity.Request",
        "members": [
          {
            "astId": 7542,
            "contract": "contracts/GovernanceCharity.sol:GovernanceCharity",
            "label": "charity",
            "offset": 0,
            "slot": "0",
            "type": "t_address"
          },
          {
            "astId": 7544,
            "contract": "contracts/GovernanceCharity.sol:GovernanceCharity",
            "label": "funded",
            "offset": 20,
            "slot": "0",
            "type": "t_bool"
          },
          {
            "astId": 7546,
            "contract": "contracts/GovernanceCharity.sol:GovernanceCharity",
            "label": "amount",
            "offset": 0,
            "slot": "1",
            "type": "t_uint256"
          }
        ],
        "numberOfBytes": "64"
      },
      "t_uint256": {
        "encoding": "inplace",
        "label": "uint256",
        "numberOfBytes": "32"
      }
    }
  }
}