{
  "address": "0x1dfa5619e3716e9D4Db949BD5fbb1F603371D04E",
  "abi": [
    {
      "inputs": [
        {
          "internalType": "string",
          "name": "name_",
          "type": "string"
        },
        {
          "internalType": "address",
          "name": "registry_",
          "type": "address"
        },
        {
          "internalType": "address",
          "name": "_token",
          "type": "address"
        }
      ],
      "stateMutability": "nonpayable",
      "type": "constructor"
    },
    {
      "anonymous": false,
      "inputs": [
        {
          "indexed": false,
          "internalType": "uint256",
          "name": "epoch",
          "type": "uint256"
        },
        {
          "indexed": false,
          "internalType": "address",
          "name": "proposer",
          "type": "address"
        },
        {
          "indexed": false,
          "internalType": "uint256",
          "name": "startTimestamp",
          "type": "uint256"
        },
        {
          "indexed": false,
          "internalType": "uint256",
          "name": "endTimestamp",
          "type": "uint256"
        },
        {
          "indexed": false,
          "internalType": "string",
          "name": "description",
          "type": "string"
        }
      ],
      "name": "ProposalCreated",
      "type": "event"
    },
    {
      "anonymous": false,
      "inputs": [
        {
          "indexed": false,
          "internalType": "uint256",
          "name": "proposalId",
          "type": "uint256"
        }
      ],
      "name": "ProposalExecuted",
      "type": "event"
    },
    {
      "anonymous": false,
      "inputs": [
        {
          "indexed": true,
          "internalType": "address",
          "name": "voter",
          "type": "address"
        },
        {
          "indexed": false,
          "internalType": "uint256",
          "name": "proposalId",
          "type": "uint256"
        },
        {
          "indexed": false,
          "internalType": "address",
          "name": "charity",
          "type": "address"
        },
        {
          "indexed": false,
          "internalType": "uint256",
          "name": "votes",
          "type": "uint256"
        },
        {
          "indexed": false,
          "internalType": "string",
          "name": "description",
          "type": "string"
        }
      ],
      "name": "VoteCast",
      "type": "event"
    },
    {
      "inputs": [
        {
          "internalType": "address",
          "name": "charity",
          "type": "address"
        },
        {
          "internalType": "uint256",
          "name": "amount",
          "type": "uint256"
        }
      ],
      "name": "addCharity",
      "outputs": [
        {
          "internalType": "uint256",
          "name": "",
          "type": "uint256"
        }
      ],
      "stateMutability": "nonpayable",
      "type": "function"
    },
    {
      "inputs": [
        {
          "internalType": "uint256",
          "name": "proposalId",
          "type": "uint256"
        },
        {
          "internalType": "address",
          "name": "charity",
          "type": "address"
        }
      ],
      "name": "castVote",
      "outputs": [
        {
          "internalType": "uint256",
          "name": "",
          "type": "uint256"
        }
      ],
      "stateMutability": "nonpayable",
      "type": "function"
    },
    {
      "inputs": [
        {
          "internalType": "uint256",
          "name": "proposalId",
          "type": "uint256"
        },
        {
          "internalType": "address",
          "name": "charity",
          "type": "address"
        },
        {
          "internalType": "string",
          "name": "reason",
          "type": "string"
        }
      ],
      "name": "castVoteWithReason",
      "outputs": [
        {
          "internalType": "uint256",
          "name": "",
          "type": "uint256"
        }
      ],
      "stateMutability": "nonpayable",
      "type": "function"
    },
    {
      "inputs": [
        {
          "internalType": "uint256",
          "name": "",
          "type": "uint256"
        },
        {
          "internalType": "address",
          "name": "",
          "type": "address"
        }
      ],
      "name": "charityVotes",
      "outputs": [
        {
          "internalType": "address",
          "name": "charity",
          "type": "address"
        },
        {
          "internalType": "uint256",
          "name": "amount",
          "type": "uint256"
        },
        {
          "internalType": "uint256",
          "name": "votes",
          "type": "uint256"
        }
      ],
      "stateMutability": "view",
      "type": "function"
    },
    {
      "inputs": [],
      "name": "currentEpoch",
      "outputs": [
        {
          "internalType": "uint256",
          "name": "",
          "type": "uint256"
        }
      ],
      "stateMutability": "view",
      "type": "function"
    },
    {
      "inputs": [
        {
          "internalType": "uint256",
          "name": "proposalId",
          "type": "uint256"
        }
      ],
      "name": "execute",
      "outputs": [
        {
          "internalType": "uint256",
          "name": "",
          "type": "uint256"
        }
      ],
      "stateMutability": "nonpayable",
      "type": "function"
    },
    {
      "inputs": [
        {
          "internalType": "address",
          "name": "account",
          "type": "address"
        },
        {
          "internalType": "uint256",
          "name": "blockNumber",
          "type": "uint256"
        }
      ],
      "name": "getVotes",
      "outputs": [
        {
          "internalType": "uint256",
          "name": "",
          "type": "uint256"
        }
      ],
      "stateMutability": "view",
      "type": "function"
    },
    {
      "inputs": [
        {
          "internalType": "uint256",
          "name": "epoch",
          "type": "uint256"
        }
      ],
      "name": "hashProposal",
      "outputs": [
        {
          "internalType": "uint256",
          "name": "",
          "type": "uint256"
        }
      ],
      "stateMutability": "pure",
      "type": "function"
    },
    {
      "inputs": [],
      "name": "name",
      "outputs": [
        {
          "internalType": "string",
          "name": "",
          "type": "string"
        }
      ],
      "stateMutability": "view",
      "type": "function"
    },
    {
      "inputs": [
        {
          "internalType": "uint256",
          "name": "",
          "type": "uint256"
        },
        {
          "internalType": "address",
          "name": "",
          "type": "address"
        }
      ],
      "name": "numVotes",
      "outputs": [
        {
          "internalType": "uint256",
          "name": "",
          "type": "uint256"
        }
      ],
      "stateMutability": "view",
      "type": "function"
    },
    {
      "inputs": [
        {
          "internalType": "uint256",
          "name": "proposalId",
          "type": "uint256"
        }
      ],
      "name": "proposalDeadline",
      "outputs": [
        {
          "internalType": "uint256",
          "name": "",
          "type": "uint256"
        }
      ],
      "stateMutability": "view",
      "type": "function"
    },
    {
      "inputs": [
        {
          "internalType": "uint256",
          "name": "proposalId",
          "type": "uint256"
        }
      ],
      "name": "proposalSnapshot",
      "outputs": [
        {
          "internalType": "uint256",
          "name": "",
          "type": "uint256"
        }
      ],
      "stateMutability": "view",
      "type": "function"
    },
    {
      "inputs": [
        {
          "internalType": "string",
          "name": "description",
          "type": "string"
        }
      ],
      "name": "propose",
      "outputs": [
        {
          "internalType": "uint256",
          "name": "",
          "type": "uint256"
        }
      ],
      "stateMutability": "nonpayable",
      "type": "function"
    },
    {
      "inputs": [
        {
          "internalType": "address",
          "name": "charity",
          "type": "address"
        }
      ],
      "name": "removeCharity",
      "outputs": [],
      "stateMutability": "nonpayable",
      "type": "function"
    },
    {
      "inputs": [
        {
          "internalType": "uint256",
          "name": "proposalId",
          "type": "uint256"
        }
      ],
      "name": "state",
      "outputs": [
        {
          "internalType": "enum IGovernanceVoting.ProposalState",
          "name": "",
          "type": "uint8"
        }
      ],
      "stateMutability": "view",
      "type": "function"
    },
    {
      "inputs": [],
      "name": "version",
      "outputs": [
        {
          "internalType": "string",
          "name": "",
          "type": "string"
        }
      ],
      "stateMutability": "view",
      "type": "function"
    },
    {
      "inputs": [],
      "name": "votingDelay",
      "outputs": [
        {
          "internalType": "uint256",
          "name": "",
          "type": "uint256"
        }
      ],
      "stateMutability": "pure",
      "type": "function"
    },
    {
      "inputs": [],
      "name": "votingPeriod",
      "outputs": [
        {
          "internalType": "uint256",
          "name": "",
          "type": "uint256"
        }
      ],
      "stateMutability": "pure",
      "type": "function"
    },
    {
      "stateMutability": "payable",
      "type": "receive"
    }
  ],
  "transactionHash": "0xe7503c4bdd9a5b04f80b1bc58ba525a2c13488da6c05ca829c47e1755d829332",
  "args": [
    "Voting",
    "0xa24f5713e4af49cf9476fa23b7815820b76878ed",
    "0x0000000000000000000000000000000000000000"
  ],
  "numDeployments": 2,
  "solcInputHash": "dccfbe3792c7bc45204dc1914c8cd437",
  "bytecode": "0x60c06040523480156200001157600080fd5b5060405162002deb38038062002deb8339818101604052810190620000379190620002c4565b82600190816200004891906200058a565b508173ffffffffffffffffffffffffffffffffffffffff1660808173ffffffffffffffffffffffffffffffffffffffff16815250508073ffffffffffffffffffffffffffffffffffffffff1660a08173ffffffffffffffffffffffffffffffffffffffff16815250508260009081620000c291906200058a565b5050505062000671565b6000604051905090565b600080fd5b600080fd5b600080fd5b600080fd5b6000601f19601f8301169050919050565b7f4e487b7100000000000000000000000000000000000000000000000000000000600052604160045260246000fd5b6200013582620000ea565b810181811067ffffffffffffffff82111715620001575762000156620000fb565b5b80604052505050565b60006200016c620000cc565b90506200017a82826200012a565b919050565b600067ffffffffffffffff8211156200019d576200019c620000fb565b5b620001a882620000ea565b9050602081019050919050565b60005b83811015620001d5578082015181840152602081019050620001b8565b60008484015250505050565b6000620001f8620001f2846200017f565b62000160565b905082815260208101848484011115620002175762000216620000e5565b5b62000224848285620001b5565b509392505050565b600082601f830112620002445762000243620000e0565b5b815162000256848260208601620001e1565b91505092915050565b600073ffffffffffffffffffffffffffffffffffffffff82169050919050565b60006200028c826200025f565b9050919050565b6200029e816200027f565b8114620002aa57600080fd5b50565b600081519050620002be8162000293565b92915050565b600080600060608486031215620002e057620002df620000d6565b5b600084015167ffffffffffffffff811115620003015762000300620000db565b5b6200030f868287016200022c565b93505060206200032286828701620002ad565b92505060406200033586828701620002ad565b9150509250925092565b600081519050919050565b7f4e487b7100000000000000000000000000000000000000000000000000000000600052602260045260246000fd5b600060028204905060018216806200039257607f821691505b602082108103620003a857620003a76200034a565b5b50919050565b60008190508160005260206000209050919050565b60006020601f8301049050919050565b600082821b905092915050565b600060088302620004127fffffffffffffffffffffffffffffffffffffffffffffffffffffffffffffffff82620003d3565b6200041e8683620003d3565b95508019841693508086168417925050509392505050565b6000819050919050565b6000819050919050565b60006200046b620004656200045f8462000436565b62000440565b62000436565b9050919050565b6000819050919050565b62000487836200044a565b6200049f620004968262000472565b848454620003e0565b825550505050565b600090565b620004b6620004a7565b620004c38184846200047c565b505050565b5b81811015620004eb57620004df600082620004ac565b600181019050620004c9565b5050565b601f8211156200053a576200050481620003ae565b6200050f84620003c3565b810160208510156200051f578190505b620005376200052e85620003c3565b830182620004c8565b50505b505050565b600082821c905092915050565b60006200055f600019846008026200053f565b1980831691505092915050565b60006200057a83836200054c565b9150826002028217905092915050565b62000595826200033f565b67ffffffffffffffff811115620005b157620005b0620000fb565b5b620005bd825462000379565b620005ca828285620004ef565b600060209050601f831160018114620006025760008415620005ed578287015190505b620005f985826200056c565b86555062000669565b601f1984166200061286620003ae565b60005b828110156200063c5784890151825560018201915060208501945060208101905062000615565b868310156200065c578489015162000658601f8916826200054c565b8355505b6001600288020188555050505b505050505050565b60805160a051612738620006b360003960006118900152600081816109b501528181610cec015281816110ed0152818161164501526117e601526127386000f3fe60806040526004361061010d5760003560e01c80639a23648f11610095578063ea53e79811610064578063ea53e79814610405578063eb9019d414610442578063f0ac0b821461047f578063f5f2d286146104bc578063fe0d94c1146104f957610153565b80639a23648f14610325578063aa98df3914610362578063abefe5911461039f578063c01f9e37146103c857610153565b80633932abb1116100dc5780633932abb11461022a5780633e4f49e61461025557806354fd4d501461029257806376671808146102bd57806377df41b7146102e857610153565b806302a251a31461015857806306fdde03146101835780632d63f693146101ae578063363d8293146101eb57610153565b36610153573073ffffffffffffffffffffffffffffffffffffffff16610131610536565b73ffffffffffffffffffffffffffffffffffffffff161461015157600080fd5b005b600080fd5b34801561016457600080fd5b5061016d61053e565b60405161017a919061194c565b60405180910390f35b34801561018f57600080fd5b50610198610549565b6040516101a591906119f7565b60405180910390f35b3480156101ba57600080fd5b506101d560048036038101906101d09190611a59565b6105db565b6040516101e2919061194c565b60405180910390f35b3480156101f757600080fd5b50610212600480360381019061020d9190611ae4565b610649565b60405161022193929190611b33565b60405180910390f35b34801561023657600080fd5b5061023f6106a0565b60405161024c919061194c565b60405180910390f35b34801561026157600080fd5b5061027c60048036038101906102779190611a59565b6106ab565b6040516102899190611be1565b60405180910390f35b34801561029e57600080fd5b506102a7610773565b6040516102b491906119f7565b60405180910390f35b3480156102c957600080fd5b506102d26107b0565b6040516102df919061194c565b60405180910390f35b3480156102f457600080fd5b5061030f600480360381019061030a9190611ae4565b6107b6565b60405161031c919061194c565b60405180910390f35b34801561033157600080fd5b5061034c60048036038101906103479190611ae4565b6107e0565b604051610359919061194c565b60405180910390f35b34801561036e57600080fd5b5061038960048036038101906103849190611d31565b610805565b604051610396919061194c565b60405180910390f35b3480156103ab57600080fd5b506103c660048036038101906103c19190611d7a565b6109b3565b005b3480156103d457600080fd5b506103ef60048036038101906103ea9190611a59565b610bfb565b6040516103fc919061194c565b60405180910390f35b34801561041157600080fd5b5061042c60048036038101906104279190611a59565b610c69565b604051610439919061194c565b60405180910390f35b34801561044e57600080fd5b5061046960048036038101906104649190611da7565b610c73565b604051610476919061194c565b60405180910390f35b34801561048b57600080fd5b506104a660048036038101906104a19190611e47565b610c87565b6040516104b3919061194c565b60405180910390f35b3480156104c857600080fd5b506104e360048036038101906104de9190611da7565b610ce8565b6040516104f0919061194c565b60405180910390f35b34801561050557600080fd5b50610520600480360381019061051b9190611a59565b610f51565b60405161052d919061194c565b60405180910390f35b600030905090565b600062093a80905090565b60606001805461055890611eea565b80601f016020809104026020016040519081016040528092919081815260200182805461058490611eea565b80156105d15780601f106105a6576101008083540402835291602001916105d1565b820191906000526020600020905b8154815290600101906020018083116105b457829003601f168201915b5050505050905090565b6000610638600260008481526020019081526020016000206000016040518060200160405290816000820160009054906101000a900467ffffffffffffffff1667ffffffffffffffff1667ffffffffffffffff1681525050611021565b67ffffffffffffffff169050919050565b6004602052816000526040600020602052806000526040600020600091509150508060000160009054906101000a900473ffffffffffffffffffffffffffffffffffffffff16908060010154908060020154905083565b600062015180905090565b6000806002600084815260200190815260200160002090508060020160009054906101000a900460ff16156106e457600491505061076e565b60006106ef846105db565b905060008103610734576040517f08c379a000000000000000000000000000000000000000000000000000000000815260040161072b90611f67565b60405180910390fd5b4281106107465760019250505061076e565b600061075185610bfb565b9050428110610766576002935050505061076e565b600393505050505b919050565b60606040518060400160405280600181526020017f3100000000000000000000000000000000000000000000000000000000000000815250905090565b60065481565b6000803390506107d78482856040518060200160405280600081525061102f565b91505092915050565b6005602052816000526040600020602052806000526040600020600091509150505481565b6000806006541461084b576040517f08c379a000000000000000000000000000000000000000000000000000000000815260040161084290611fd3565b60405180910390fd5b600042905060006002600083815260200190815260200160002090506108b0816000016040518060200160405290816000820160009054906101000a900467ffffffffffffffff1667ffffffffffffffff1667ffffffffffffffff16815250506115a1565b6108ef576040517f08c379a00000000000000000000000000000000000000000000000000000000081526004016108e690612065565b60405180910390fd5b60006109016108fc6106a0565b6115bb565b61090a426115bb565b61091491906120c8565b9050600061092861092361053e565b6115bb565b8261093391906120c8565b905061094b828460000161161290919063ffffffff16565b610961818460010161161290919063ffffffff16565b836006819055507fa00fcf4f5e03cc2f4818b8f380a8f2a06479e49bf0765e5fec09aebdaf922bbc843384848a60405161099f95949392919061213f565b60405180910390a183945050505050919050565b7f000000000000000000000000000000000000000000000000000000000000000073ffffffffffffffffffffffffffffffffffffffff1663d435837f6040518163ffffffff1660e01b8152600401602060405180830381865afa158015610a1e573d6000803e3d6000fd5b505050506040513d601f19601f82011682018060405250810190610a4291906121ae565b73ffffffffffffffffffffffffffffffffffffffff163373ffffffffffffffffffffffffffffffffffffffff1614610aaf576040517f08c379a0000000000000000000000000000000000000000000000000000000008152600401610aa690612227565b60405180910390fd5b600060065411610af4576040517f08c379a0000000000000000000000000000000000000000000000000000000008152600401610aeb90612293565b60405180910390fd5b6000600260006006548152602001908152602001600020905042610b57826000016040518060200160405290816000820160009054906101000a900467ffffffffffffffff1667ffffffffffffffff1667ffffffffffffffff1681525050611021565b67ffffffffffffffff1611610b6b57600080fd5b60046000600654815260200190815260200160002060008373ffffffffffffffffffffffffffffffffffffffff1673ffffffffffffffffffffffffffffffffffffffff168152602001908152602001600020600080820160006101000a81549073ffffffffffffffffffffffffffffffffffffffff02191690556001820160009055600282016000905550505050565b6000610c58600260008481526020019081526020016000206001016040518060200160405290816000820160009054906101000a900467ffffffffffffffff1667ffffffffffffffff1667ffffffffffffffff1681525050611021565b67ffffffffffffffff169050919050565b6000819050919050565b6000610c7f8383611641565b905092915050565b600080339050610cdd86828787878080601f016020809104026020016040519081016040528093929190818152602001838380828437600081840152601f19601f8201169050808301925050505050505061102f565b915050949350505050565b60007f000000000000000000000000000000000000000000000000000000000000000073ffffffffffffffffffffffffffffffffffffffff1663d435837f6040518163ffffffff1660e01b8152600401602060405180830381865afa158015610d55573d6000803e3d6000fd5b505050506040513d601f19601f82011682018060405250810190610d7991906121ae565b73ffffffffffffffffffffffffffffffffffffffff163373ffffffffffffffffffffffffffffffffffffffff1614610de6576040517f08c379a0000000000000000000000000000000000000000000000000000000008152600401610ddd90612227565b60405180910390fd5b600060065411610e2b576040517f08c379a0000000000000000000000000000000000000000000000000000000008152600401610e2290612293565b60405180910390fd5b6000600260006006548152602001908152602001600020905042610e8e826000016040518060200160405290816000820160009054906101000a900467ffffffffffffffff1667ffffffffffffffff1667ffffffffffffffff1681525050611021565b67ffffffffffffffff1611610ea257600080fd5b600060046000600654815260200190815260200160002060008673ffffffffffffffffffffffffffffffffffffffff1673ffffffffffffffffffffffffffffffffffffffff1681526020019081526020016000209050848160000160006101000a81548173ffffffffffffffffffffffffffffffffffffffff021916908373ffffffffffffffffffffffffffffffffffffffff1602179055508381600101819055506006549250505092915050565b600080610f5d836106ab565b905060036004811115610f7357610f72611b6a565b5b816004811115610f8657610f85611b6a565b5b14610fc6576040517f08c379a0000000000000000000000000000000000000000000000000000000008152600401610fbd90612325565b60405180910390fd5b7f712ae1383f79ac853f8d882153778e0260ef8f03b504e2866e0593e04d2b291f83604051610ff5919061194c565b60405180910390a161100683611755565b61100f83611758565b6110188361190f565b82915050919050565b600081600001519050919050565b60006006548514611075576040517f08c379a000000000000000000000000000000000000000000000000000000000815260040161106c90612391565b60405180910390fd5b6000611080866106ab565b90506002600481111561109657611095611b6a565b5b8160048111156110a9576110a8611b6a565b5b146110e9576040517f08c379a00000000000000000000000000000000000000000000000000000000081526004016110e0906123fd565b60405180910390fd5b60007f000000000000000000000000000000000000000000000000000000000000000073ffffffffffffffffffffffffffffffffffffffff1663f96dae0a6040518163ffffffff1660e01b8152600401602060405180830381865afa158015611156573d6000803e3d6000fd5b505050506040513d601f19601f8201168201806040525081019061117a91906121ae565b90508073ffffffffffffffffffffffffffffffffffffffff166370a08231876040518263ffffffff1660e01b81526004016111b5919061241d565b602060405180830381865afa1580156111d2573d6000803e3d6000fd5b505050506040513d601f19601f820116820180604052508101906111f6919061244d565b92506000831161123b576040517f08c379a0000000000000000000000000000000000000000000000000000000008152600401611232906124c6565b60405180910390fd5b826005600089815260200190815260200160002060008873ffffffffffffffffffffffffffffffffffffffff1673ffffffffffffffffffffffffffffffffffffffff168152602001908152602001600020600082825461129b91906124e6565b9250508190555060006004600089815260200190815260200160002060008773ffffffffffffffffffffffffffffffffffffffff1673ffffffffffffffffffffffffffffffffffffffff1681526020019081526020016000209050600073ffffffffffffffffffffffffffffffffffffffff168160000160009054906101000a900473ffffffffffffffffffffffffffffffffffffffff1673ffffffffffffffffffffffffffffffffffffffff160361135357600080fd5b8381600201600082825461136791906124e6565b925050819055506003600089815260200190815260200160002060020154600460008a815260200190815260200160002060008873ffffffffffffffffffffffffffffffffffffffff1673ffffffffffffffffffffffffffffffffffffffff1681526020019081526020016000206002015411156114c1576004600089815260200190815260200160002060008773ffffffffffffffffffffffffffffffffffffffff1673ffffffffffffffffffffffffffffffffffffffff168152602001908152602001600020600360008a81526020019081526020016000206000820160009054906101000a900473ffffffffffffffffffffffffffffffffffffffff168160000160006101000a81548173ffffffffffffffffffffffffffffffffffffffff021916908373ffffffffffffffffffffffffffffffffffffffff16021790555060018201548160010155600282015481600201559050505b8173ffffffffffffffffffffffffffffffffffffffff166323b872dd8830876040518463ffffffff1660e01b81526004016114fe9392919061251a565b6020604051808303816000875af115801561151d573d6000803e3d6000fd5b505050506040513d601f19601f820116820180604052508101906115419190612589565b508673ffffffffffffffffffffffffffffffffffffffff167f6a0c750cd24cabc0a82ac80d00738f790d8b3575241e9bb3147799ee75c6e4308988878960405161158e94939291906125b6565b60405180910390a2505050949350505050565b600080826000015167ffffffffffffffff16149050919050565b600067ffffffffffffffff801682111561160a576040517f08c379a000000000000000000000000000000000000000000000000000000000815260040161160190612674565b60405180910390fd5b819050919050565b808260000160006101000a81548167ffffffffffffffff021916908367ffffffffffffffff1602179055505050565b60007f000000000000000000000000000000000000000000000000000000000000000073ffffffffffffffffffffffffffffffffffffffff1663f96dae0a6040518163ffffffff1660e01b8152600401602060405180830381865afa1580156116ae573d6000803e3d6000fd5b505050506040513d601f19601f820116820180604052508101906116d291906121ae565b73ffffffffffffffffffffffffffffffffffffffff16633a46b1a884846040518363ffffffff1660e01b815260040161170c929190612694565b602060405180830381865afa158015611729573d6000803e3d6000fd5b505050506040513d601f19601f8201168201806040525081019061174d919061244d565b905092915050565b50565b6000600360008381526020019081526020016000206040518060600160405290816000820160009054906101000a900473ffffffffffffffffffffffffffffffffffffffff1673ffffffffffffffffffffffffffffffffffffffff1673ffffffffffffffffffffffffffffffffffffffff1681526020016001820154815260200160028201548152505090507f000000000000000000000000000000000000000000000000000000000000000073ffffffffffffffffffffffffffffffffffffffff1663365f383f6040518163ffffffff1660e01b8152600401602060405180830381865afa15801561184f573d6000803e3d6000fd5b505050506040513d601f19601f8201168201806040525081019061187391906121ae565b73ffffffffffffffffffffffffffffffffffffffff16639f8de4de7f000000000000000000000000000000000000000000000000000000000000000083600001518460200151866040518563ffffffff1660e01b81526004016118d994939291906126bd565b600060405180830381600087803b1580156118f357600080fd5b505af1158015611907573d6000803e3d6000fd5b505050505050565b600060068190555061192f60405180602001604052806000815250610805565b5050565b6000819050919050565b61194681611933565b82525050565b6000602082019050611961600083018461193d565b92915050565b600081519050919050565b600082825260208201905092915050565b60005b838110156119a1578082015181840152602081019050611986565b60008484015250505050565b6000601f19601f8301169050919050565b60006119c982611967565b6119d38185611972565b93506119e3818560208601611983565b6119ec816119ad565b840191505092915050565b60006020820190508181036000830152611a1181846119be565b905092915050565b6000604051905090565b600080fd5b600080fd5b611a3681611933565b8114611a4157600080fd5b50565b600081359050611a5381611a2d565b92915050565b600060208284031215611a6f57611a6e611a23565b5b6000611a7d84828501611a44565b91505092915050565b600073ffffffffffffffffffffffffffffffffffffffff82169050919050565b6000611ab182611a86565b9050919050565b611ac181611aa6565b8114611acc57600080fd5b50565b600081359050611ade81611ab8565b92915050565b60008060408385031215611afb57611afa611a23565b5b6000611b0985828601611a44565b9250506020611b1a85828601611acf565b9150509250929050565b611b2d81611aa6565b82525050565b6000606082019050611b486000830186611b24565b611b55602083018561193d565b611b62604083018461193d565b949350505050565b7f4e487b7100000000000000000000000000000000000000000000000000000000600052602160045260246000fd5b60058110611baa57611ba9611b6a565b5b50565b6000819050611bbb82611b99565b919050565b6000611bcb82611bad565b9050919050565b611bdb81611bc0565b82525050565b6000602082019050611bf66000830184611bd2565b92915050565b600080fd5b600080fd5b7f4e487b7100000000000000000000000000000000000000000000000000000000600052604160045260246000fd5b611c3e826119ad565b810181811067ffffffffffffffff82111715611c5d57611c5c611c06565b5b80604052505050565b6000611c70611a19565b9050611c7c8282611c35565b919050565b600067ffffffffffffffff821115611c9c57611c9b611c06565b5b611ca5826119ad565b9050602081019050919050565b82818337600083830152505050565b6000611cd4611ccf84611c81565b611c66565b905082815260208101848484011115611cf057611cef611c01565b5b611cfb848285611cb2565b509392505050565b600082601f830112611d1857611d17611bfc565b5b8135611d28848260208601611cc1565b91505092915050565b600060208284031215611d4757611d46611a23565b5b600082013567ffffffffffffffff811115611d6557611d64611a28565b5b611d7184828501611d03565b91505092915050565b600060208284031215611d9057611d8f611a23565b5b6000611d9e84828501611acf565b91505092915050565b60008060408385031215611dbe57611dbd611a23565b5b6000611dcc85828601611acf565b9250506020611ddd85828601611a44565b9150509250929050565b600080fd5b600080fd5b60008083601f840112611e0757611e06611bfc565b5b8235905067ffffffffffffffff811115611e2457611e23611de7565b5b602083019150836001820283011115611e4057611e3f611dec565b5b9250929050565b60008060008060608587031215611e6157611e60611a23565b5b6000611e6f87828801611a44565b9450506020611e8087828801611acf565b935050604085013567ffffffffffffffff811115611ea157611ea0611a28565b5b611ead87828801611df1565b925092505092959194509250565b7f4e487b7100000000000000000000000000000000000000000000000000000000600052602260045260246000fd5b60006002820490506001821680611f0257607f821691505b602082108103611f1557611f14611ebb565b5b50919050565b7f476f7665726e6f723a20756e6b6e6f776e2070726f706f73616c206964000000600082015250565b6000611f51601d83611972565b9150611f5c82611f1b565b602082019050919050565b60006020820190508181036000830152611f8081611f44565b9050919050565b7f50726f706f73616c20697320616c72656164792072756e6e696e670000000000600082015250565b6000611fbd601b83611972565b9150611fc882611f87565b602082019050919050565b60006020820190508181036000830152611fec81611fb0565b9050919050565b7f476f7665726e6f723a2070726f706f73616c20616c726561647920657869737460008201527f7300000000000000000000000000000000000000000000000000000000000000602082015250565b600061204f602183611972565b915061205a82611ff3565b604082019050919050565b6000602082019050818103600083015261207e81612042565b9050919050565b600067ffffffffffffffff82169050919050565b7f4e487b7100000000000000000000000000000000000000000000000000000000600052601160045260246000fd5b60006120d382612085565b91506120de83612085565b9250828201905067ffffffffffffffff8111156120fe576120fd612099565b5b92915050565b6000819050919050565b600061212961212461211f84612085565b612104565b611933565b9050919050565b6121398161210e565b82525050565b600060a082019050612154600083018861193d565b6121616020830187611b24565b61216e6040830186612130565b61217b6060830185612130565b818103608083015261218d81846119be565b90509695505050505050565b6000815190506121a881611ab8565b92915050565b6000602082840312156121c4576121c3611a23565b5b60006121d284828501612199565b91505092915050565b7f4f6e6c7920436861726974792063616e2063616c6c0000000000000000000000600082015250565b6000612211601583611972565b915061221c826121db565b602082019050919050565b6000602082019050818103600083015261224081612204565b9050919050565b7f50726f706f73616c206e6f742072756e6e696e67000000000000000000000000600082015250565b600061227d601483611972565b915061228882612247565b602082019050919050565b600060208201905081810360008301526122ac81612270565b9050919050565b7f476f7665726e6f723a2070726f706f73616c206e6f742073756363657373667560008201527f6c00000000000000000000000000000000000000000000000000000000000000602082015250565b600061230f602183611972565b915061231a826122b3565b604082019050919050565b6000602082019050818103600083015261233e81612302565b9050919050565b7f566f74696e6720666f7220696e76616c69642070726f706f73616c0000000000600082015250565b600061237b601b83611972565b915061238682612345565b602082019050919050565b600060208201905081810360008301526123aa8161236e565b9050919050565b7f4e6f74206163746976652070726f706f73616c00000000000000000000000000600082015250565b60006123e7601383611972565b91506123f2826123b1565b602082019050919050565b60006020820190508181036000830152612416816123da565b9050919050565b60006020820190506124326000830184611b24565b92915050565b60008151905061244781611a2d565b92915050565b60006020828403121561246357612462611a23565b5b600061247184828501612438565b91505092915050565b7f4e6f20766f74657320746f20766f746520776974680000000000000000000000600082015250565b60006124b0601583611972565b91506124bb8261247a565b602082019050919050565b600060208201905081810360008301526124df816124a3565b9050919050565b60006124f182611933565b91506124fc83611933565b925082820190508082111561251457612513612099565b5b92915050565b600060608201905061252f6000830186611b24565b61253c6020830185611b24565b612549604083018461193d565b949350505050565b60008115159050919050565b61256681612551565b811461257157600080fd5b50565b6000815190506125838161255d565b92915050565b60006020828403121561259f5761259e611a23565b5b60006125ad84828501612574565b91505092915050565b60006080820190506125cb600083018761193d565b6125d86020830186611b24565b6125e5604083018561193d565b81810360608301526125f781846119be565b905095945050505050565b7f53616665436173743a2076616c756520646f65736e27742066697420696e203660008201527f3420626974730000000000000000000000000000000000000000000000000000602082015250565b600061265e602683611972565b915061266982612602565b604082019050919050565b6000602082019050818103600083015261268d81612651565b9050919050565b60006040820190506126a96000830185611b24565b6126b6602083018461193d565b9392505050565b60006080820190506126d26000830187611b24565b6126df6020830186611b24565b6126ec604083018561193d565b6126f9606083018461193d565b9594505050505056fea2646970667358221220a4acbcec9a36a820fa7f042d82352aff90ef43e31fde9ceb7c505c8bd7f14d7d64736f6c63430008110033",
  "devdoc": {
    "details": "GovernanceVoting contract modified from OZ's Governance.sol contract ",
    "kind": "dev",
    "methods": {
      "addCharity(address,uint256)": {
        "details": "Adds a charity to the current proposal This only works if the charity is in the correct snapshot"
      },
      "castVote(uint256,address)": {
        "details": "See {IGovernor-castVote}."
      },
      "castVoteWithReason(uint256,address,string)": {
        "details": "See {IGovernor-castVoteWithReason}."
      },
      "constructor": {
        "details": "Sets the value for {name} and {registry}"
      },
      "execute(uint256)": {
        "details": "See {IGovernor-execute}. This function should only be called by a chainlink operator"
      },
      "getVotes(address,uint256)": {
        "details": "See {IGovernor-getVotes}."
      },
      "hashProposal(uint256)": {
        "details": "See {IGovernor-hashProposal}. The proposal id is produced by hashing the ABI encoded `targets` array, the `values` array, the `calldatas` array and the descriptionHash (bytes32 which itself is the keccak256 hash of the description string). This proposal id can be produced from the proposal data which is part of the {ProposalCreated} event. It can even be computed in advance, before the proposal is submitted. Note that the chainId and the governor address are not part of the proposal id computation. Consequently, the same proposal (with same operation and same description) will have the same id if submitted on multiple governors across multiple networks. This also means that in order to execute the same operation twice (on the same governor) the proposer will have to change the description in order to avoid proposal id conflicts."
      },
      "name()": {
        "details": "See {IGovernor-name}."
      },
      "proposalDeadline(uint256)": {
        "details": "See {IGovernor-proposalDeadline}."
      },
      "proposalSnapshot(uint256)": {
        "details": "See {IGovernor-proposalSnapshot}."
      },
      "propose(string)": {
        "details": "See {IGovernor-propose}."
      },
      "state(uint256)": {
        "details": "See {IGovernor-state}."
      },
      "version()": {
        "details": "See {IGovernor-version}."
      },
      "votingDelay()": {
        "details": "Delay, in number of block, between the proposal is created and the vote starts. This can be increassed to leave time for users to buy voting power, or delegate it, before the voting of a proposal starts."
      },
      "votingPeriod()": {
        "details": "Delay, in number of blocks, between the vote start and vote ends. NOTE: The {votingDelay} can delay the start of the vote. This must be considered when setting the voting duration compared to the voting delay."
      }
    },
    "stateVariables": {
      "_name": {
        "details": "Storage and mappings"
      },
      "_registry": {
        "details": "Immutables and Constants"
      },
      "numVotes": {
        "details": "Returns whether `account` has cast a vote on `proposalId`."
      }
    },
    "version": 1
  },
  "userdoc": {
    "kind": "user",
    "methods": {
      "numVotes(uint256,address)": {
        "notice": "module:voting"
      },
      "votingDelay()": {
        "notice": "module:user-config"
      },
      "votingPeriod()": {
        "notice": "module:user-config"
      }
    },
    "version": 1
  },
  "storageLayout": {
    "storage": [
      {
        "astId": 6781,
        "contract": "contracts/GovernanceVoting.sol:GovernanceVoting",
        "label": "BALLOT_TYPEHASH",
        "offset": 0,
        "slot": "0",
        "type": "t_string_storage"
      },
      {
        "astId": 6784,
        "contract": "contracts/GovernanceVoting.sol:GovernanceVoting",
        "label": "_name",
        "offset": 0,
        "slot": "1",
        "type": "t_string_storage"
      },
      {
        "astId": 6789,
        "contract": "contracts/GovernanceVoting.sol:GovernanceVoting",
        "label": "_proposals",
        "offset": 0,
        "slot": "2",
        "type": "t_mapping(t_uint256,t_struct(ProposalCore)6757_storage)"
      },
      {
        "astId": 6794,
        "contract": "contracts/GovernanceVoting.sol:GovernanceVoting",
        "label": "proposalWinners",
        "offset": 0,
        "slot": "3",
        "type": "t_mapping(t_uint256,t_struct(CharityState)6764_storage)"
      },
      {
        "astId": 6801,
        "contract": "contracts/GovernanceVoting.sol:GovernanceVoting",
        "label": "charityVotes",
        "offset": 0,
        "slot": "4",
        "type": "t_mapping(t_uint256,t_mapping(t_address,t_struct(CharityState)6764_storage))"
      },
      {
        "astId": 6808,
        "contract": "contracts/GovernanceVoting.sol:GovernanceVoting",
        "label": "numVotes",
        "offset": 0,
        "slot": "5",
        "type": "t_mapping(t_uint256,t_mapping(t_address,t_uint256))"
      },
      {
        "astId": 6810,
        "contract": "contracts/GovernanceVoting.sol:GovernanceVoting",
        "label": "currentEpoch",
        "offset": 0,
        "slot": "6",
        "type": "t_uint256"
      }
    ],
    "types": {
      "t_address": {
        "encoding": "inplace",
        "label": "address",
        "numberOfBytes": "20"
      },
      "t_bool": {
        "encoding": "inplace",
        "label": "bool",
        "numberOfBytes": "1"
      },
      "t_mapping(t_address,t_struct(CharityState)6764_storage)": {
        "encoding": "mapping",
        "key": "t_address",
        "label": "mapping(address => struct GovernanceVoting.CharityState)",
        "numberOfBytes": "32",
        "value": "t_struct(CharityState)6764_storage"
      },
      "t_mapping(t_address,t_uint256)": {
        "encoding": "mapping",
        "key": "t_address",
        "label": "mapping(address => uint256)",
        "numberOfBytes": "32",
        "value": "t_uint256"
      },
      "t_mapping(t_uint256,t_mapping(t_address,t_struct(CharityState)6764_storage))": {
        "encoding": "mapping",
        "key": "t_uint256",
        "label": "mapping(uint256 => mapping(address => struct GovernanceVoting.CharityState))",
        "numberOfBytes": "32",
        "value": "t_mapping(t_address,t_struct(CharityState)6764_storage)"
      },
      "t_mapping(t_uint256,t_mapping(t_address,t_uint256))": {
        "encoding": "mapping",
        "key": "t_uint256",
        "label": "mapping(uint256 => mapping(address => uint256))",
        "numberOfBytes": "32",
        "value": "t_mapping(t_address,t_uint256)"
      },
      "t_mapping(t_uint256,t_struct(CharityState)6764_storage)": {
        "encoding": "mapping",
        "key": "t_uint256",
        "label": "mapping(uint256 => struct GovernanceVoting.CharityState)",
        "numberOfBytes": "32",
        "value": "t_struct(CharityState)6764_storage"
      },
      "t_mapping(t_uint256,t_struct(ProposalCore)6757_storage)": {
        "encoding": "mapping",
        "key": "t_uint256",
        "label": "mapping(uint256 => struct GovernanceVoting.ProposalCore)",
        "numberOfBytes": "32",
        "value": "t_struct(ProposalCore)6757_storage"
      },
      "t_string_storage": {
        "encoding": "bytes",
        "label": "string",
        "numberOfBytes": "32"
      },
      "t_struct(CharityState)6764_storage": {
        "encoding": "inplace",
        "label": "struct GovernanceVoting.CharityState",
        "members": [
          {
            "astId": 6759,
            "contract": "contracts/GovernanceVoting.sol:GovernanceVoting",
            "label": "charity",
            "offset": 0,
            "slot": "0",
            "type": "t_address"
          },
          {
            "astId": 6761,
            "contract": "contracts/GovernanceVoting.sol:GovernanceVoting",
            "label": "amount",
            "offset": 0,
            "slot": "1",
            "type": "t_uint256"
          },
          {
            "astId": 6763,
            "contract": "contracts/GovernanceVoting.sol:GovernanceVoting",
            "label": "votes",
            "offset": 0,
            "slot": "2",
            "type": "t_uint256"
          }
        ],
        "numberOfBytes": "96"
      },
      "t_struct(ProposalCore)6757_storage": {
        "encoding": "inplace",
        "label": "struct GovernanceVoting.ProposalCore",
        "members": [
          {
            "astId": 6751,
            "contract": "contracts/GovernanceVoting.sol:GovernanceVoting",
            "label": "voteStart",
            "offset": 0,
            "slot": "0",
            "type": "t_struct(Timestamp)2674_storage"
          },
          {
            "astId": 6754,
            "contract": "contracts/GovernanceVoting.sol:GovernanceVoting",
            "label": "voteEnd",
            "offset": 0,
            "slot": "1",
            "type": "t_struct(Timestamp)2674_storage"
          },
          {
            "astId": 6756,
            "contract": "contracts/GovernanceVoting.sol:GovernanceVoting",
            "label": "executed",
            "offset": 0,
            "slot": "2",
            "type": "t_bool"
          }
        ],
        "numberOfBytes": "96"
      },
      "t_struct(Timestamp)2674_storage": {
        "encoding": "inplace",
        "label": "struct Timers.Timestamp",
        "members": [
          {
            "astId": 2673,
            "contract": "contracts/GovernanceVoting.sol:GovernanceVoting",
            "label": "_deadline",
            "offset": 0,
            "slot": "0",
            "type": "t_uint64"
          }
        ],
        "numberOfBytes": "32"
      },
      "t_uint256": {
        "encoding": "inplace",
        "label": "uint256",
        "numberOfBytes": "32"
      },
      "t_uint64": {
        "encoding": "inplace",
        "label": "uint64",
        "numberOfBytes": "8"
      }
    }
  }
}