{
  "address": "0xb6981167dF8A978EaD98a29d3e5faF9305AC3b63",
  "abi": [
    {
      "inputs": [
        {
          "internalType": "address",
          "name": "registry_",
          "type": "address"
        }
      ],
      "stateMutability": "nonpayable",
      "type": "constructor"
    },
    {
      "anonymous": false,
      "inputs": [
        {
          "indexed": true,
          "internalType": "address",
          "name": "token",
          "type": "address"
        },
        {
          "indexed": true,
          "internalType": "uint256",
          "name": "tokenAmount",
          "type": "uint256"
        },
        {
          "indexed": true,
          "internalType": "uint256",
          "name": "voteTokenAmount",
          "type": "uint256"
        }
      ],
      "name": "Deposited",
      "type": "event"
    },
    {
      "anonymous": false,
      "inputs": [
        {
          "indexed": true,
          "internalType": "address",
          "name": "previousOwner",
          "type": "address"
        },
        {
          "indexed": true,
          "internalType": "address",
          "name": "newOwner",
          "type": "address"
        }
      ],
      "name": "OwnershipTransferred",
      "type": "event"
    },
    {
      "inputs": [
        {
          "internalType": "address",
          "name": "tokenAddr",
          "type": "address"
        },
        {
          "internalType": "uint256",
          "name": "amount",
          "type": "uint256"
        }
      ],
      "name": "deposit",
      "outputs": [],
      "stateMutability": "payable",
      "type": "function"
    },
    {
      "inputs": [
        {
          "internalType": "address",
          "name": "token",
          "type": "address"
        }
      ],
      "name": "getPriceFeed",
      "outputs": [
        {
          "internalType": "address",
          "name": "",
          "type": "address"
        }
      ],
      "stateMutability": "view",
      "type": "function"
    },
    {
      "inputs": [],
      "name": "owner",
      "outputs": [
        {
          "internalType": "address",
          "name": "",
          "type": "address"
        }
      ],
      "stateMutability": "view",
      "type": "function"
    },
    {
      "inputs": [],
      "name": "registry",
      "outputs": [
        {
          "internalType": "address",
          "name": "",
          "type": "address"
        }
      ],
      "stateMutability": "view",
      "type": "function"
    },
    {
      "inputs": [],
      "name": "renounceOwnership",
      "outputs": [],
      "stateMutability": "nonpayable",
      "type": "function"
    },
    {
      "inputs": [
        {
          "internalType": "address",
          "name": "tokenAddr",
          "type": "address"
        },
        {
          "internalType": "address",
          "name": "to",
          "type": "address"
        },
        {
          "internalType": "uint256",
          "name": "amount",
          "type": "uint256"
        }
      ],
      "name": "sendFunds",
      "outputs": [],
      "stateMutability": "nonpayable",
      "type": "function"
    },
    {
      "inputs": [
        {
          "internalType": "address",
          "name": "token",
          "type": "address"
        },
        {
          "internalType": "address",
          "name": "feed",
          "type": "address"
        }
      ],
      "name": "setPriceFeed",
      "outputs": [],
      "stateMutability": "nonpayable",
      "type": "function"
    },
    {
      "inputs": [
        {
          "internalType": "address",
          "name": "newOwner",
          "type": "address"
        }
      ],
      "name": "transferOwnership",
      "outputs": [],
      "stateMutability": "nonpayable",
      "type": "function"
    }
  ],
  "transactionHash": "0x6cb3598e1ef1df2cd71c10d4feeb842e818cf43c9577a7c0aa57a7b91d0a18d1",
  "args": [
    "0xa24f5713e4af49cf9476fa23b7815820b76878ed"
  ],
  "numDeployments": 1,
  "solcInputHash": "d785d38e0d82ec1ae228751911380dae",
  "bytecode": "0x60a06040523480156200001157600080fd5b5060405162001e6b38038062001e6b8339818101604052810190620000379190620001c8565b620000576200004b6200009260201b60201c565b6200009a60201b60201c565b8073ffffffffffffffffffffffffffffffffffffffff1660808173ffffffffffffffffffffffffffffffffffffffff168152505050620001fa565b600033905090565b60008060009054906101000a900473ffffffffffffffffffffffffffffffffffffffff169050816000806101000a81548173ffffffffffffffffffffffffffffffffffffffff021916908373ffffffffffffffffffffffffffffffffffffffff1602179055508173ffffffffffffffffffffffffffffffffffffffff168173ffffffffffffffffffffffffffffffffffffffff167f8be0079c531659141344cd1fd0a4f28419497f9722a3daafe3b4186f6b6457e060405160405180910390a35050565b600080fd5b600073ffffffffffffffffffffffffffffffffffffffff82169050919050565b6000620001908262000163565b9050919050565b620001a28162000183565b8114620001ae57600080fd5b50565b600081519050620001c28162000197565b92915050565b600060208284031215620001e157620001e06200015e565b5b6000620001f184828501620001b1565b91505092915050565b608051611c406200022b600039600081816101c501528181610568015281816105b701526106b50152611c406000f3fe60806040526004361061007b5760003560e01c80637b1039991161004e5780637b103999146101195780638da5cb5b14610144578063e0ca14741461016f578063f2fde38b146101985761007b565b806347e7ef24146100805780635b6cca801461009c578063715018a6146100d957806376e11286146100f0575b600080fd5b61009a60048036038101906100959190611165565b6101c1565b005b3480156100a857600080fd5b506100c360048036038101906100be91906111a5565b61045d565b6040516100d091906111e1565b60405180910390f35b3480156100e557600080fd5b506100ee6104c6565b005b3480156100fc57600080fd5b50610117600480360381019061011291906111fc565b6104da565b005b34801561012557600080fd5b5061012e610564565b60405161013b91906111e1565b60405180910390f35b34801561015057600080fd5b5061015961058c565b60405161016691906111e1565b60405180910390f35b34801561017b57600080fd5b506101966004803603810190610191919061123c565b6105b5565b005b3480156101a457600080fd5b506101bf60048036038101906101ba91906111a5565b6108ce565b005b60007f000000000000000000000000000000000000000000000000000000000000000073ffffffffffffffffffffffffffffffffffffffff1663f96dae0a6040518163ffffffff1660e01b8152600401602060405180830381865afa15801561022e573d6000803e3d6000fd5b505050506040513d601f19601f8201168201806040525081019061025291906112a4565b90506000341115610315578073ffffffffffffffffffffffffffffffffffffffff166340c10f1933346040518363ffffffff1660e01b81526004016102989291906112e0565b600060405180830381600087803b1580156102b257600080fd5b505af11580156102c6573d6000803e3d6000fd5b505050503434600073ffffffffffffffffffffffffffffffffffffffff167f73a19dd210f1a7f902193214c0ee91dd35ee5b4d920cba8d519eca65a7b488ca60405160405180910390a4610458565b8273ffffffffffffffffffffffffffffffffffffffff166323b872dd3330856040518463ffffffff1660e01b815260040161035293929190611309565b6020604051808303816000875af1158015610371573d6000803e3d6000fd5b505050506040513d601f19601f820116820180604052508101906103959190611378565b5060006103a28484610951565b90508173ffffffffffffffffffffffffffffffffffffffff166340c10f1933836040518363ffffffff1660e01b81526004016103df9291906112e0565b600060405180830381600087803b1580156103f957600080fd5b505af115801561040d573d6000803e3d6000fd5b5050505080838573ffffffffffffffffffffffffffffffffffffffff167f73a19dd210f1a7f902193214c0ee91dd35ee5b4d920cba8d519eca65a7b488ca60405160405180910390a4505b505050565b6000600160008373ffffffffffffffffffffffffffffffffffffffff1673ffffffffffffffffffffffffffffffffffffffff16815260200190815260200160002060009054906101000a900473ffffffffffffffffffffffffffffffffffffffff169050919050565b6104ce610bfd565b6104d86000610c7b565b565b6104e2610bfd565b80600160008473ffffffffffffffffffffffffffffffffffffffff1673ffffffffffffffffffffffffffffffffffffffff16815260200190815260200160002060006101000a81548173ffffffffffffffffffffffffffffffffffffffff021916908373ffffffffffffffffffffffffffffffffffffffff1602179055505050565b60007f0000000000000000000000000000000000000000000000000000000000000000905090565b60008060009054906101000a900473ffffffffffffffffffffffffffffffffffffffff16905090565b7f000000000000000000000000000000000000000000000000000000000000000073ffffffffffffffffffffffffffffffffffffffff16637bb78e586040518163ffffffff1660e01b8152600401602060405180830381865afa158015610620573d6000803e3d6000fd5b505050506040513d601f19601f8201168201806040525081019061064491906112a4565b73ffffffffffffffffffffffffffffffffffffffff163373ffffffffffffffffffffffffffffffffffffffff16146106b1576040517f08c379a00000000000000000000000000000000000000000000000000000000081526004016106a890611402565b60405180910390fd5b60007f000000000000000000000000000000000000000000000000000000000000000073ffffffffffffffffffffffffffffffffffffffff1663f96dae0a6040518163ffffffff1660e01b8152600401602060405180830381865afa15801561071e573d6000803e3d6000fd5b505050506040513d601f19601f8201168201806040525081019061074291906112a4565b90508073ffffffffffffffffffffffffffffffffffffffff16639dc29fac33846040518363ffffffff1660e01b815260040161077f9291906112e0565b600060405180830381600087803b15801561079957600080fd5b505af11580156107ad573d6000803e3d6000fd5b50505050600073ffffffffffffffffffffffffffffffffffffffff168473ffffffffffffffffffffffffffffffffffffffff160361089c5760008373ffffffffffffffffffffffffffffffffffffffff16836108fc9060405161080f90611453565b600060405180830381858888f193505050503d806000811461084d576040519150601f19603f3d011682016040523d82523d6000602084013e610852565b606091505b5050905080610896576040517f08c379a000000000000000000000000000000000000000000000000000000000815260040161088d906114b4565b60405180910390fd5b506108c8565b6108c783838673ffffffffffffffffffffffffffffffffffffffff16610d3f9092919063ffffffff16565b5b50505050565b6108d6610bfd565b600073ffffffffffffffffffffffffffffffffffffffff168173ffffffffffffffffffffffffffffffffffffffff1603610945576040517f08c379a000000000000000000000000000000000000000000000000000000000815260040161093c90611546565b60405180910390fd5b61094e81610c7b565b50565b600080600160008573ffffffffffffffffffffffffffffffffffffffff1673ffffffffffffffffffffffffffffffffffffffff16815260200190815260200160002060009054906101000a900473ffffffffffffffffffffffffffffffffffffffff169050600073ffffffffffffffffffffffffffffffffffffffff168173ffffffffffffffffffffffffffffffffffffffff1603610a25576040517f08c379a0000000000000000000000000000000000000000000000000000000008152600401610a1c906115b2565b60405180910390fd5b600081905060008573ffffffffffffffffffffffffffffffffffffffff1663313ce5676040518163ffffffff1660e01b8152600401602060405180830381865afa158015610a77573d6000803e3d6000fd5b505050506040513d601f19601f82011682018060405250810190610a9b919061160b565b905060008273ffffffffffffffffffffffffffffffffffffffff1663313ce5676040518163ffffffff1660e01b8152600401602060405180830381865afa158015610aea573d6000803e3d6000fd5b505050506040513d601f19601f82011682018060405250810190610b0e919061160b565b90506000610b1c8383610dc5565b905060008473ffffffffffffffffffffffffffffffffffffffff1663feaf968c6040518163ffffffff1660e01b815260040160a060405180830381865afa158015610b6b573d6000803e3d6000fd5b505050506040513d601f19601f82011682018060405250810190610b8f91906116c5565b50505091505060008113610bd8576040517f08c379a0000000000000000000000000000000000000000000000000000000008152600401610bcf9061178c565b60405180910390fd5b808883610be591906117db565b610bef919061184c565b965050505050505092915050565b610c05610e47565b73ffffffffffffffffffffffffffffffffffffffff16610c2361058c565b73ffffffffffffffffffffffffffffffffffffffff1614610c79576040517f08c379a0000000000000000000000000000000000000000000000000000000008152600401610c70906118c9565b60405180910390fd5b565b60008060009054906101000a900473ffffffffffffffffffffffffffffffffffffffff169050816000806101000a81548173ffffffffffffffffffffffffffffffffffffffff021916908373ffffffffffffffffffffffffffffffffffffffff1602179055508173ffffffffffffffffffffffffffffffffffffffff168173ffffffffffffffffffffffffffffffffffffffff167f8be0079c531659141344cd1fd0a4f28419497f9722a3daafe3b4186f6b6457e060405160405180910390a35050565b610dc08363a9059cbb60e01b8484604051602401610d5e9291906112e0565b604051602081830303815290604052907bffffffffffffffffffffffffffffffffffffffffffffffffffffffff19166020820180517bffffffffffffffffffffffffffffffffffffffffffffffffffffffff8381831617835250505050610e4f565b505050565b60008160ff168360ff161015610dfe578282610de191906118e9565b60ff16670de0b6b3a7640000610df7919061191e565b9050610e41565b8160ff168360ff161015610e35578183610e1891906118e9565b60ff16670de0b6b3a7640000610e2e9190611952565b9050610e41565b670de0b6b3a764000090505b92915050565b600033905090565b6000610eb1826040518060400160405280602081526020017f5361666545524332303a206c6f772d6c6576656c2063616c6c206661696c65648152508573ffffffffffffffffffffffffffffffffffffffff16610f169092919063ffffffff16565b9050600081511115610f115780806020019051810190610ed19190611378565b610f10576040517f08c379a0000000000000000000000000000000000000000000000000000000008152600401610f07906119f8565b60405180910390fd5b5b505050565b6060610f258484600085610f2e565b90509392505050565b606082471015610f73576040517f08c379a0000000000000000000000000000000000000000000000000000000008152600401610f6a90611a8a565b60405180910390fd5b610f7c85611042565b610fbb576040517f08c379a0000000000000000000000000000000000000000000000000000000008152600401610fb290611af6565b60405180910390fd5b6000808673ffffffffffffffffffffffffffffffffffffffff168587604051610fe49190611b7c565b60006040518083038185875af1925050503d8060008114611021576040519150601f19603f3d011682016040523d82523d6000602084013e611026565b606091505b5091509150611036828286611065565b92505050949350505050565b6000808273ffffffffffffffffffffffffffffffffffffffff163b119050919050565b60608315611075578290506110c5565b6000835111156110885782518084602001fd5b816040517f08c379a00000000000000000000000000000000000000000000000000000000081526004016110bc9190611be8565b60405180910390fd5b9392505050565b600080fd5b600073ffffffffffffffffffffffffffffffffffffffff82169050919050565b60006110fc826110d1565b9050919050565b61110c816110f1565b811461111757600080fd5b50565b60008135905061112981611103565b92915050565b6000819050919050565b6111428161112f565b811461114d57600080fd5b50565b60008135905061115f81611139565b92915050565b6000806040838503121561117c5761117b6110cc565b5b600061118a8582860161111a565b925050602061119b85828601611150565b9150509250929050565b6000602082840312156111bb576111ba6110cc565b5b60006111c98482850161111a565b91505092915050565b6111db816110f1565b82525050565b60006020820190506111f660008301846111d2565b92915050565b60008060408385031215611213576112126110cc565b5b60006112218582860161111a565b92505060206112328582860161111a565b9150509250929050565b600080600060608486031215611255576112546110cc565b5b60006112638682870161111a565b93505060206112748682870161111a565b925050604061128586828701611150565b9150509250925092565b60008151905061129e81611103565b92915050565b6000602082840312156112ba576112b96110cc565b5b60006112c88482850161128f565b91505092915050565b6112da8161112f565b82525050565b60006040820190506112f560008301856111d2565b61130260208301846112d1565b9392505050565b600060608201905061131e60008301866111d2565b61132b60208301856111d2565b61133860408301846112d1565b949350505050565b60008115159050919050565b61135581611340565b811461136057600080fd5b50565b6000815190506113728161134c565b92915050565b60006020828403121561138e5761138d6110cc565b5b600061139c84828501611363565b91505092915050565b600082825260208201905092915050565b7f556e617574686f72697365642063616c6c657200000000000000000000000000600082015250565b60006113ec6013836113a5565b91506113f7826113b6565b602082019050919050565b6000602082019050818103600083015261141b816113df565b9050919050565b600081905092915050565b50565b600061143d600083611422565b91506114488261142d565b600082019050919050565b600061145e82611430565b9150819050919050565b7f5472616e73666572206661696c65640000000000000000000000000000000000600082015250565b600061149e600f836113a5565b91506114a982611468565b602082019050919050565b600060208201905081810360008301526114cd81611491565b9050919050565b7f4f776e61626c653a206e6577206f776e657220697320746865207a65726f206160008201527f6464726573730000000000000000000000000000000000000000000000000000602082015250565b60006115306026836113a5565b915061153b826114d4565b604082019050919050565b6000602082019050818103600083015261155f81611523565b9050919050565b7f496e76616c696420546f6b656e00000000000000000000000000000000000000600082015250565b600061159c600d836113a5565b91506115a782611566565b602082019050919050565b600060208201905081810360008301526115cb8161158f565b9050919050565b600060ff82169050919050565b6115e8816115d2565b81146115f357600080fd5b50565b600081519050611605816115df565b92915050565b600060208284031215611621576116206110cc565b5b600061162f848285016115f6565b91505092915050565b600069ffffffffffffffffffff82169050919050565b61165781611638565b811461166257600080fd5b50565b6000815190506116748161164e565b92915050565b6000819050919050565b61168d8161167a565b811461169857600080fd5b50565b6000815190506116aa81611684565b92915050565b6000815190506116bf81611139565b92915050565b600080600080600060a086880312156116e1576116e06110cc565b5b60006116ef88828901611665565b95505060206117008882890161169b565b9450506040611711888289016116b0565b9350506060611722888289016116b0565b925050608061173388828901611665565b9150509295509295909350565b7f496e76616c696420507269636500000000000000000000000000000000000000600082015250565b6000611776600d836113a5565b915061178182611740565b602082019050919050565b600060208201905081810360008301526117a581611769565b9050919050565b7f4e487b7100000000000000000000000000000000000000000000000000000000600052601160045260246000fd5b60006117e68261112f565b91506117f18361112f565b92508282026117ff8161112f565b91508282048414831517611816576118156117ac565b5b5092915050565b7f4e487b7100000000000000000000000000000000000000000000000000000000600052601260045260246000fd5b60006118578261112f565b91506118628361112f565b9250826118725761187161181d565b5b828204905092915050565b7f4f776e61626c653a2063616c6c6572206973206e6f7420746865206f776e6572600082015250565b60006118b36020836113a5565b91506118be8261187d565b602082019050919050565b600060208201905081810360008301526118e2816118a6565b9050919050565b60006118f4826115d2565b91506118ff836115d2565b9250828203905060ff811115611918576119176117ac565b5b92915050565b60006119298261112f565b91506119348361112f565b925082820190508082111561194c5761194b6117ac565b5b92915050565b600061195d8261112f565b91506119688361112f565b92508282039050818111156119805761197f6117ac565b5b92915050565b7f5361666545524332303a204552433230206f7065726174696f6e20646964206e60008201527f6f74207375636365656400000000000000000000000000000000000000000000602082015250565b60006119e2602a836113a5565b91506119ed82611986565b604082019050919050565b60006020820190508181036000830152611a11816119d5565b9050919050565b7f416464726573733a20696e73756666696369656e742062616c616e636520666f60008201527f722063616c6c0000000000000000000000000000000000000000000000000000602082015250565b6000611a746026836113a5565b9150611a7f82611a18565b604082019050919050565b60006020820190508181036000830152611aa381611a67565b9050919050565b7f416464726573733a2063616c6c20746f206e6f6e2d636f6e7472616374000000600082015250565b6000611ae0601d836113a5565b9150611aeb82611aaa565b602082019050919050565b60006020820190508181036000830152611b0f81611ad3565b9050919050565b600081519050919050565b60005b83811015611b3f578082015181840152602081019050611b24565b60008484015250505050565b6000611b5682611b16565b611b608185611422565b9350611b70818560208601611b21565b80840191505092915050565b6000611b888284611b4b565b915081905092915050565b600081519050919050565b6000601f19601f8301169050919050565b6000611bba82611b93565b611bc481856113a5565b9350611bd4818560208601611b21565b611bdd81611b9e565b840191505092915050565b60006020820190508181036000830152611c028184611baf565b90509291505056fea2646970667358221220fef349218d3f2d0050bb009cf344c1125ceb3832828292101143cac95505169b64736f6c63430008110033",
  "devdoc": {
    "kind": "dev",
    "methods": {
      "deposit(address,uint256)": {
        "details": "If ETH is sent, the function arguments are ignored."
      },
      "owner()": {
        "details": "Returns the address of the current owner."
      },
      "renounceOwnership()": {
        "details": "Leaves the contract without owner. It will not be possible to call `onlyOwner` functions anymore. Can only be called by the current owner. NOTE: Renouncing ownership will leave the contract without an owner, thereby removing any functionality that is only available to the owner."
      },
      "transferOwnership(address)": {
        "details": "Transfers ownership of the contract to a new account (`newOwner`). Can only be called by the current owner."
      }
    },
    "version": 1
  },
  "userdoc": {
    "kind": "user",
    "methods": {},
    "version": 1
  },
  "storageLayout": {
    "storage": [
      {
        "astId": 53,
        "contract": "contracts/GovernanceTreasury.sol:GovernanceTreasury",
        "label": "_owner",
        "offset": 0,
        "slot": "0",
        "type": "t_address"
      },
      {
        "astId": 6320,
        "contract": "contracts/GovernanceTreasury.sol:GovernanceTreasury",
        "label": "_priceFeeds",
        "offset": 0,
        "slot": "1",
        "type": "t_mapping(t_address,t_address)"
      }
    ],
    "types": {
      "t_address": {
        "encoding": "inplace",
        "label": "address",
        "numberOfBytes": "20"
      },
      "t_mapping(t_address,t_address)": {
        "encoding": "mapping",
        "key": "t_address",
        "label": "mapping(address => address)",
        "numberOfBytes": "32",
        "value": "t_address"
      }
    }
  }
}