{
  "address": "0xA1cd82197a0a64cbCa6402117C4AF973e9e67632",
  "abi": [
    {
      "inputs": [
        {
          "internalType": "address",
          "name": "registry_",
          "type": "address"
        }
      ],
      "stateMutability": "nonpayable",
      "type": "constructor"
    },
    {
      "anonymous": false,
      "inputs": [
        {
          "indexed": true,
          "internalType": "address",
          "name": "token",
          "type": "address"
        },
        {
          "indexed": true,
          "internalType": "uint256",
          "name": "tokenAmount",
          "type": "uint256"
        },
        {
          "indexed": true,
          "internalType": "uint256",
          "name": "voteTokenAmount",
          "type": "uint256"
        }
      ],
      "name": "Deposited",
      "type": "event"
    },
    {
      "anonymous": false,
      "inputs": [
        {
          "indexed": true,
          "internalType": "address",
          "name": "previousOwner",
          "type": "address"
        },
        {
          "indexed": true,
          "internalType": "address",
          "name": "newOwner",
          "type": "address"
        }
      ],
      "name": "OwnershipTransferred",
      "type": "event"
    },
    {
      "anonymous": false,
      "inputs": [
        {
          "indexed": false,
          "internalType": "address",
          "name": "tokenAddr",
          "type": "address"
        },
        {
          "indexed": false,
          "internalType": "address",
          "name": "to",
          "type": "address"
        },
        {
          "indexed": false,
          "internalType": "uint256",
          "name": "amount",
          "type": "uint256"
        },
        {
          "indexed": false,
          "internalType": "uint256",
          "name": "epoch",
          "type": "uint256"
        }
      ],
      "name": "SentFunds",
      "type": "event"
    },
    {
      "inputs": [
        {
          "internalType": "address",
          "name": "tokenAddr",
          "type": "address"
        },
        {
          "internalType": "uint256",
          "name": "amount",
          "type": "uint256"
        }
      ],
      "name": "deposit",
      "outputs": [],
      "stateMutability": "payable",
      "type": "function"
    },
    {
      "inputs": [
        {
          "internalType": "address",
          "name": "token",
          "type": "address"
        }
      ],
      "name": "getPriceFeed",
      "outputs": [
        {
          "internalType": "address",
          "name": "",
          "type": "address"
        }
      ],
      "stateMutability": "view",
      "type": "function"
    },
    {
      "inputs": [],
      "name": "owner",
      "outputs": [
        {
          "internalType": "address",
          "name": "",
          "type": "address"
        }
      ],
      "stateMutability": "view",
      "type": "function"
    },
    {
      "inputs": [],
      "name": "registry",
      "outputs": [
        {
          "internalType": "address",
          "name": "",
          "type": "address"
        }
      ],
      "stateMutability": "view",
      "type": "function"
    },
    {
      "inputs": [],
      "name": "renounceOwnership",
      "outputs": [],
      "stateMutability": "nonpayable",
      "type": "function"
    },
    {
      "inputs": [
        {
          "internalType": "address",
          "name": "tokenAddr",
          "type": "address"
        },
        {
          "internalType": "address",
          "name": "to",
          "type": "address"
        },
        {
          "internalType": "uint256",
          "name": "amount",
          "type": "uint256"
        },
        {
          "internalType": "uint256",
          "name": "epoch",
          "type": "uint256"
        }
      ],
      "name": "sendFunds",
      "outputs": [],
      "stateMutability": "nonpayable",
      "type": "function"
    },
    {
      "inputs": [
        {
          "internalType": "address",
          "name": "token",
          "type": "address"
        },
        {
          "internalType": "address",
          "name": "feed",
          "type": "address"
        }
      ],
      "name": "setPriceFeed",
      "outputs": [],
      "stateMutability": "nonpayable",
      "type": "function"
    },
    {
      "inputs": [
        {
          "internalType": "address",
          "name": "newOwner",
          "type": "address"
        }
      ],
      "name": "transferOwnership",
      "outputs": [],
      "stateMutability": "nonpayable",
      "type": "function"
    }
  ],
  "transactionHash": "0xb63def6f011b8f7aae5a521b7ecde8a3563e53cf421c5f5c4a429532c9eda2c3",
  "args": [
    "0xa24f5713e4af49cf9476fa23b7815820b76878ed"
  ],
  "numDeployments": 2,
  "solcInputHash": "dccfbe3792c7bc45204dc1914c8cd437",
  "bytecode": "0x60a06040523480156200001157600080fd5b5060405162002442380380620024428339818101604052810190620000379190620001c8565b620000576200004b6200009260201b60201c565b6200009a60201b60201c565b8073ffffffffffffffffffffffffffffffffffffffff1660808173ffffffffffffffffffffffffffffffffffffffff168152505050620001fa565b600033905090565b60008060009054906101000a900473ffffffffffffffffffffffffffffffffffffffff169050816000806101000a81548173ffffffffffffffffffffffffffffffffffffffff021916908373ffffffffffffffffffffffffffffffffffffffff1602179055508173ffffffffffffffffffffffffffffffffffffffff168173ffffffffffffffffffffffffffffffffffffffff167f8be0079c531659141344cd1fd0a4f28419497f9722a3daafe3b4186f6b6457e060405160405180910390a35050565b600080fd5b600073ffffffffffffffffffffffffffffffffffffffff82169050919050565b6000620001908262000163565b9050919050565b620001a28162000183565b8114620001ae57600080fd5b50565b600081519050620001c28162000197565b92915050565b600060208284031215620001e157620001e06200015e565b5b6000620001f184828501620001b1565b91505092915050565b60805161221062000232600039600081816101c30152818161030c0152818161071d0152818161076c015261086a01526122106000f3fe60806040526004361061007b5760003560e01c80637b1039991161004e5780637b103999146101195780638da5cb5b146101445780639f8de4de1461016f578063f2fde38b146101985761007b565b806347e7ef24146100805780635b6cca801461009c578063715018a6146100d957806376e11286146100f0575b600080fd5b61009a60048036038101906100959190611459565b6101c1565b005b3480156100a857600080fd5b506100c360048036038101906100be9190611499565b610612565b6040516100d091906114d5565b60405180910390f35b3480156100e557600080fd5b506100ee61067b565b005b3480156100fc57600080fd5b50610117600480360381019061011291906114f0565b61068f565b005b34801561012557600080fd5b5061012e610719565b60405161013b91906114d5565b60405180910390f35b34801561015057600080fd5b50610159610741565b60405161016691906114d5565b60405180910390f35b34801561017b57600080fd5b5061019660048036038101906101919190611530565b61076a565b005b3480156101a457600080fd5b506101bf60048036038101906101ba9190611499565b610bcb565b005b7f000000000000000000000000000000000000000000000000000000000000000073ffffffffffffffffffffffffffffffffffffffff16639d23c4c76040518163ffffffff1660e01b8152600401602060405180830381865afa15801561022c573d6000803e3d6000fd5b505050506040513d601f19601f8201168201806040525081019061025091906115ac565b73ffffffffffffffffffffffffffffffffffffffff1663b9181611836040518263ffffffff1660e01b815260040161028891906114d5565b602060405180830381865afa1580156102a5573d6000803e3d6000fd5b505050506040513d601f19601f820116820180604052508101906102c99190611611565b610308576040517f08c379a00000000000000000000000000000000000000000000000000000000081526004016102ff9061169b565b60405180910390fd5b60007f000000000000000000000000000000000000000000000000000000000000000073ffffffffffffffffffffffffffffffffffffffff1663f96dae0a6040518163ffffffff1660e01b8152600401602060405180830381865afa158015610375573d6000803e3d6000fd5b505050506040513d601f19601f8201168201806040525081019061039991906115ac565b9050600073ffffffffffffffffffffffffffffffffffffffff168373ffffffffffffffffffffffffffffffffffffffff1603610487578073ffffffffffffffffffffffffffffffffffffffff166340c10f1933346040518363ffffffff1660e01b815260040161040a9291906116ca565b600060405180830381600087803b15801561042457600080fd5b505af1158015610438573d6000803e3d6000fd5b505050503434600073ffffffffffffffffffffffffffffffffffffffff167f73a19dd210f1a7f902193214c0ee91dd35ee5b4d920cba8d519eca65a7b488ca60405160405180910390a461060d565b600034146104ca576040517f08c379a00000000000000000000000000000000000000000000000000000000081526004016104c19061173f565b60405180910390fd5b8273ffffffffffffffffffffffffffffffffffffffff166323b872dd3330856040518463ffffffff1660e01b81526004016105079392919061175f565b6020604051808303816000875af1158015610526573d6000803e3d6000fd5b505050506040513d601f19601f8201168201806040525081019061054a9190611611565b5060006105578484610c4e565b90508173ffffffffffffffffffffffffffffffffffffffff166340c10f1933836040518363ffffffff1660e01b81526004016105949291906116ca565b600060405180830381600087803b1580156105ae57600080fd5b505af11580156105c2573d6000803e3d6000fd5b5050505080838573ffffffffffffffffffffffffffffffffffffffff167f73a19dd210f1a7f902193214c0ee91dd35ee5b4d920cba8d519eca65a7b488ca60405160405180910390a4505b505050565b6000600160008373ffffffffffffffffffffffffffffffffffffffff1673ffffffffffffffffffffffffffffffffffffffff16815260200190815260200160002060009054906101000a900473ffffffffffffffffffffffffffffffffffffffff169050919050565b610683610f06565b61068d6000610f84565b565b610697610f06565b80600160008473ffffffffffffffffffffffffffffffffffffffff1673ffffffffffffffffffffffffffffffffffffffff16815260200190815260200160002060006101000a81548173ffffffffffffffffffffffffffffffffffffffff021916908373ffffffffffffffffffffffffffffffffffffffff1602179055505050565b60007f0000000000000000000000000000000000000000000000000000000000000000905090565b60008060009054906101000a900473ffffffffffffffffffffffffffffffffffffffff16905090565b7f000000000000000000000000000000000000000000000000000000000000000073ffffffffffffffffffffffffffffffffffffffff16637bb78e586040518163ffffffff1660e01b8152600401602060405180830381865afa1580156107d5573d6000803e3d6000fd5b505050506040513d601f19601f820116820180604052508101906107f991906115ac565b73ffffffffffffffffffffffffffffffffffffffff163373ffffffffffffffffffffffffffffffffffffffff1614610866576040517f08c379a000000000000000000000000000000000000000000000000000000000815260040161085d906117e2565b60405180910390fd5b60007f000000000000000000000000000000000000000000000000000000000000000073ffffffffffffffffffffffffffffffffffffffff1663f96dae0a6040518163ffffffff1660e01b8152600401602060405180830381865afa1580156108d3573d6000803e3d6000fd5b505050506040513d601f19601f820116820180604052508101906108f791906115ac565b90508073ffffffffffffffffffffffffffffffffffffffff16639dc29fac33856040518363ffffffff1660e01b81526004016109349291906116ca565b600060405180830381600087803b15801561094e57600080fd5b505af1158015610962573d6000803e3d6000fd5b50505050600073ffffffffffffffffffffffffffffffffffffffff168573ffffffffffffffffffffffffffffffffffffffff1603610a5d57824710156109a6574792505b60008473ffffffffffffffffffffffffffffffffffffffff16846108fc906040516109d090611833565b600060405180830381858888f193505050503d8060008114610a0e576040519150601f19603f3d011682016040523d82523d6000602084013e610a13565b606091505b5050905080610a57576040517f08c379a0000000000000000000000000000000000000000000000000000000008152600401610a4e90611894565b60405180910390fd5b50610b87565b828573ffffffffffffffffffffffffffffffffffffffff166370a08231306040518263ffffffff1660e01b8152600401610a9791906114d5565b602060405180830381865afa158015610ab4573d6000803e3d6000fd5b505050506040513d601f19601f82011682018060405250810190610ad891906118c9565b1015610b5b578473ffffffffffffffffffffffffffffffffffffffff166370a08231306040518263ffffffff1660e01b8152600401610b1791906114d5565b602060405180830381865afa158015610b34573d6000803e3d6000fd5b505050506040513d601f19601f82011682018060405250810190610b5891906118c9565b92505b610b8684848773ffffffffffffffffffffffffffffffffffffffff166110489092919063ffffffff16565b5b7f9479fac13f22f51e577a7b5dabe94eff5edf7d760eba6270767c58035b996fc785858585604051610bbc94939291906118f6565b60405180910390a15050505050565b610bd3610f06565b600073ffffffffffffffffffffffffffffffffffffffff168173ffffffffffffffffffffffffffffffffffffffff1603610c42576040517f08c379a0000000000000000000000000000000000000000000000000000000008152600401610c39906119ad565b60405180910390fd5b610c4b81610f84565b50565b600080600160008573ffffffffffffffffffffffffffffffffffffffff1673ffffffffffffffffffffffffffffffffffffffff16815260200190815260200160002060009054906101000a900473ffffffffffffffffffffffffffffffffffffffff169050600073ffffffffffffffffffffffffffffffffffffffff168173ffffffffffffffffffffffffffffffffffffffff1603610d22576040517f08c379a0000000000000000000000000000000000000000000000000000000008152600401610d1990611a19565b60405180910390fd5b600081905060008573ffffffffffffffffffffffffffffffffffffffff1663313ce5676040518163ffffffff1660e01b8152600401602060405180830381865afa158015610d74573d6000803e3d6000fd5b505050506040513d601f19601f82011682018060405250810190610d989190611a72565b905060008273ffffffffffffffffffffffffffffffffffffffff1663313ce5676040518163ffffffff1660e01b8152600401602060405180830381865afa158015610de7573d6000803e3d6000fd5b505050506040513d601f19601f82011682018060405250810190610e0b9190611a72565b90506000610e1983836110ce565b905060008473ffffffffffffffffffffffffffffffffffffffff1663feaf968c6040518163ffffffff1660e01b815260040160a060405180830381865afa158015610e68573d6000803e3d6000fd5b505050506040513d601f19601f82011682018060405250810190610e8c9190611b17565b50505091505060008113610ed5576040517f08c379a0000000000000000000000000000000000000000000000000000000008152600401610ecc90611bde565b60405180910390fd5b808883600a610ee49190611d60565b610eee9190611dab565b610ef89190611e1c565b965050505050505092915050565b610f0e61113b565b73ffffffffffffffffffffffffffffffffffffffff16610f2c610741565b73ffffffffffffffffffffffffffffffffffffffff1614610f82576040517f08c379a0000000000000000000000000000000000000000000000000000000008152600401610f7990611e99565b60405180910390fd5b565b60008060009054906101000a900473ffffffffffffffffffffffffffffffffffffffff169050816000806101000a81548173ffffffffffffffffffffffffffffffffffffffff021916908373ffffffffffffffffffffffffffffffffffffffff1602179055508173ffffffffffffffffffffffffffffffffffffffff168173ffffffffffffffffffffffffffffffffffffffff167f8be0079c531659141344cd1fd0a4f28419497f9722a3daafe3b4186f6b6457e060405160405180910390a35050565b6110c98363a9059cbb60e01b84846040516024016110679291906116ca565b604051602081830303815290604052907bffffffffffffffffffffffffffffffffffffffffffffffffffffffff19166020820180517bffffffffffffffffffffffffffffffffffffffffffffffffffffffff8381831617835250505050611143565b505050565b60008160ff168360ff1610156111005782826110ea9190611eb9565b60ff1660126110f99190611eee565b9050611135565b8260ff168260ff16101561113057818361111a9190611eb9565b60ff1660126111299190611f22565b9050611135565b601290505b92915050565b600033905090565b60006111a5826040518060400160405280602081526020017f5361666545524332303a206c6f772d6c6576656c2063616c6c206661696c65648152508573ffffffffffffffffffffffffffffffffffffffff1661120a9092919063ffffffff16565b905060008151111561120557808060200190518101906111c59190611611565b611204576040517f08c379a00000000000000000000000000000000000000000000000000000000081526004016111fb90611fc8565b60405180910390fd5b5b505050565b60606112198484600085611222565b90509392505050565b606082471015611267576040517f08c379a000000000000000000000000000000000000000000000000000000000815260040161125e9061205a565b60405180910390fd5b61127085611336565b6112af576040517f08c379a00000000000000000000000000000000000000000000000000000000081526004016112a6906120c6565b60405180910390fd5b6000808673ffffffffffffffffffffffffffffffffffffffff1685876040516112d8919061214c565b60006040518083038185875af1925050503d8060008114611315576040519150601f19603f3d011682016040523d82523d6000602084013e61131a565b606091505b509150915061132a828286611359565b92505050949350505050565b6000808273ffffffffffffffffffffffffffffffffffffffff163b119050919050565b60608315611369578290506113b9565b60008351111561137c5782518084602001fd5b816040517f08c379a00000000000000000000000000000000000000000000000000000000081526004016113b091906121b8565b60405180910390fd5b9392505050565b600080fd5b600073ffffffffffffffffffffffffffffffffffffffff82169050919050565b60006113f0826113c5565b9050919050565b611400816113e5565b811461140b57600080fd5b50565b60008135905061141d816113f7565b92915050565b6000819050919050565b61143681611423565b811461144157600080fd5b50565b6000813590506114538161142d565b92915050565b600080604083850312156114705761146f6113c0565b5b600061147e8582860161140e565b925050602061148f85828601611444565b9150509250929050565b6000602082840312156114af576114ae6113c0565b5b60006114bd8482850161140e565b91505092915050565b6114cf816113e5565b82525050565b60006020820190506114ea60008301846114c6565b92915050565b60008060408385031215611507576115066113c0565b5b60006115158582860161140e565b92505060206115268582860161140e565b9150509250929050565b6000806000806080858703121561154a576115496113c0565b5b60006115588782880161140e565b94505060206115698782880161140e565b935050604061157a87828801611444565b925050606061158b87828801611444565b91505092959194509250565b6000815190506115a6816113f7565b92915050565b6000602082840312156115c2576115c16113c0565b5b60006115d084828501611597565b91505092915050565b60008115159050919050565b6115ee816115d9565b81146115f957600080fd5b50565b60008151905061160b816115e5565b92915050565b600060208284031215611627576116266113c0565b5b6000611635848285016115fc565b91505092915050565b600082825260208201905092915050565b7f496e76616c696420746f6b656e20616464726573730000000000000000000000600082015250565b600061168560158361163e565b91506116908261164f565b602082019050919050565b600060208201905081810360008301526116b481611678565b9050919050565b6116c481611423565b82525050565b60006040820190506116df60008301856114c6565b6116ec60208301846116bb565b9392505050565b7f496e76616c6964206d736720616d6f756e740000000000000000000000000000600082015250565b600061172960128361163e565b9150611734826116f3565b602082019050919050565b600060208201905081810360008301526117588161171c565b9050919050565b600060608201905061177460008301866114c6565b61178160208301856114c6565b61178e60408301846116bb565b949350505050565b7f556e617574686f72697365642063616c6c657200000000000000000000000000600082015250565b60006117cc60138361163e565b91506117d782611796565b602082019050919050565b600060208201905081810360008301526117fb816117bf565b9050919050565b600081905092915050565b50565b600061181d600083611802565b91506118288261180d565b600082019050919050565b600061183e82611810565b9150819050919050565b7f5472616e73666572206661696c65640000000000000000000000000000000000600082015250565b600061187e600f8361163e565b915061188982611848565b602082019050919050565b600060208201905081810360008301526118ad81611871565b9050919050565b6000815190506118c38161142d565b92915050565b6000602082840312156118df576118de6113c0565b5b60006118ed848285016118b4565b91505092915050565b600060808201905061190b60008301876114c6565b61191860208301866114c6565b61192560408301856116bb565b61193260608301846116bb565b95945050505050565b7f4f776e61626c653a206e6577206f776e657220697320746865207a65726f206160008201527f6464726573730000000000000000000000000000000000000000000000000000602082015250565b600061199760268361163e565b91506119a28261193b565b604082019050919050565b600060208201905081810360008301526119c68161198a565b9050919050565b7f496e76616c696420546f6b656e00000000000000000000000000000000000000600082015250565b6000611a03600d8361163e565b9150611a0e826119cd565b602082019050919050565b60006020820190508181036000830152611a32816119f6565b9050919050565b600060ff82169050919050565b611a4f81611a39565b8114611a5a57600080fd5b50565b600081519050611a6c81611a46565b92915050565b600060208284031215611a8857611a876113c0565b5b6000611a9684828501611a5d565b91505092915050565b600069ffffffffffffffffffff82169050919050565b611abe81611a9f565b8114611ac957600080fd5b50565b600081519050611adb81611ab5565b92915050565b6000819050919050565b611af481611ae1565b8114611aff57600080fd5b50565b600081519050611b1181611aeb565b92915050565b600080600080600060a08688031215611b3357611b326113c0565b5b6000611b4188828901611acc565b9550506020611b5288828901611b02565b9450506040611b63888289016118b4565b9350506060611b74888289016118b4565b9250506080611b8588828901611acc565b9150509295509295909350565b7f496e76616c696420507269636500000000000000000000000000000000000000600082015250565b6000611bc8600d8361163e565b9150611bd382611b92565b602082019050919050565b60006020820190508181036000830152611bf781611bbb565b9050919050565b7f4e487b7100000000000000000000000000000000000000000000000000000000600052601160045260246000fd5b60008160011c9050919050565b6000808291508390505b6001851115611c8457808604811115611c6057611c5f611bfe565b5b6001851615611c6f5780820291505b8081029050611c7d85611c2d565b9450611c44565b94509492505050565b600082611c9d5760019050611d59565b81611cab5760009050611d59565b8160018114611cc15760028114611ccb57611cfa565b6001915050611d59565b60ff841115611cdd57611cdc611bfe565b5b8360020a915084821115611cf457611cf3611bfe565b5b50611d59565b5060208310610133831016604e8410600b8410161715611d2f5782820a905083811115611d2a57611d29611bfe565b5b611d59565b611d3c8484846001611c3a565b92509050818404811115611d5357611d52611bfe565b5b81810290505b9392505050565b6000611d6b82611423565b9150611d7683611423565b9250611da37fffffffffffffffffffffffffffffffffffffffffffffffffffffffffffffffff8484611c8d565b905092915050565b6000611db682611423565b9150611dc183611423565b9250828202611dcf81611423565b91508282048414831517611de657611de5611bfe565b5b5092915050565b7f4e487b7100000000000000000000000000000000000000000000000000000000600052601260045260246000fd5b6000611e2782611423565b9150611e3283611423565b925082611e4257611e41611ded565b5b828204905092915050565b7f4f776e61626c653a2063616c6c6572206973206e6f7420746865206f776e6572600082015250565b6000611e8360208361163e565b9150611e8e82611e4d565b602082019050919050565b60006020820190508181036000830152611eb281611e76565b9050919050565b6000611ec482611a39565b9150611ecf83611a39565b9250828203905060ff811115611ee857611ee7611bfe565b5b92915050565b6000611ef982611423565b9150611f0483611423565b9250828201905080821115611f1c57611f1b611bfe565b5b92915050565b6000611f2d82611423565b9150611f3883611423565b9250828203905081811115611f5057611f4f611bfe565b5b92915050565b7f5361666545524332303a204552433230206f7065726174696f6e20646964206e60008201527f6f74207375636365656400000000000000000000000000000000000000000000602082015250565b6000611fb2602a8361163e565b9150611fbd82611f56565b604082019050919050565b60006020820190508181036000830152611fe181611fa5565b9050919050565b7f416464726573733a20696e73756666696369656e742062616c616e636520666f60008201527f722063616c6c0000000000000000000000000000000000000000000000000000602082015250565b600061204460268361163e565b915061204f82611fe8565b604082019050919050565b6000602082019050818103600083015261207381612037565b9050919050565b7f416464726573733a2063616c6c20746f206e6f6e2d636f6e7472616374000000600082015250565b60006120b0601d8361163e565b91506120bb8261207a565b602082019050919050565b600060208201905081810360008301526120df816120a3565b9050919050565b600081519050919050565b60005b8381101561210f5780820151818401526020810190506120f4565b60008484015250505050565b6000612126826120e6565b6121308185611802565b93506121408185602086016120f1565b80840191505092915050565b6000612158828461211b565b915081905092915050565b600081519050919050565b6000601f19601f8301169050919050565b600061218a82612163565b612194818561163e565b93506121a48185602086016120f1565b6121ad8161216e565b840191505092915050565b600060208201905081810360008301526121d2818461217f565b90509291505056fea2646970667358221220dcad531871cc119328a2fdaff889c63f2a4737d1f7206a31cea77094fd27dff464736f6c63430008110033",
  "devdoc": {
    "kind": "dev",
    "methods": {
      "deposit(address,uint256)": {
        "details": "If ETH is sent, the function arguments are ignored."
      },
      "owner()": {
        "details": "Returns the address of the current owner."
      },
      "renounceOwnership()": {
        "details": "Leaves the contract without owner. It will not be possible to call `onlyOwner` functions anymore. Can only be called by the current owner. NOTE: Renouncing ownership will leave the contract without an owner, thereby removing any functionality that is only available to the owner."
      },
      "transferOwnership(address)": {
        "details": "Transfers ownership of the contract to a new account (`newOwner`). Can only be called by the current owner."
      }
    },
    "version": 1
  },
  "userdoc": {
    "kind": "user",
    "methods": {},
    "version": 1
  },
  "storageLayout": {
    "storage": [
      {
        "astId": 53,
        "contract": "contracts/GovernanceTreasury.sol:GovernanceTreasury",
        "label": "_owner",
        "offset": 0,
        "slot": "0",
        "type": "t_address"
      },
      {
        "astId": 6330,
        "contract": "contracts/GovernanceTreasury.sol:GovernanceTreasury",
        "label": "_priceFeeds",
        "offset": 0,
        "slot": "1",
        "type": "t_mapping(t_address,t_address)"
      }
    ],
    "types": {
      "t_address": {
        "encoding": "inplace",
        "label": "address",
        "numberOfBytes": "20"
      },
      "t_mapping(t_address,t_address)": {
        "encoding": "mapping",
        "key": "t_address",
        "label": "mapping(address => address)",
        "numberOfBytes": "32",
        "value": "t_address"
      }
    }
  }
}